:10000000002300000003000055EA0000000000008B
:1000100000000000000000000000000000000000E0
:100020000234E90102200100023BC602310AD2AFCC
:1000300032000002081ED2AF32000002080ED2AF1A
:10004000320000022B4F0000000000020816E4906E
:1000500001BCF0122AC85010EF122A4E12105B0099
:10006000002710122B2A80EBE49001BDF09001BD17
:10007000E0C39405748094804003020B2FE4900148
:10008000BCF0122AC84003020B26A3E02401FDE4C1
:1000900033FC74342F122B31D3ED9F7480F86C989D
:1000A0004003020B209001BCE0FF1238769001BCA7
:1000B000E0FF123BFD758A5075B28F902E207401BF
:1000C000F0902E20E030E2F99001BCE0FF900806AD
:1000D00093902E00122A44E0FCA3E0FDEF122A9236
:1000E000ECF0A3EDF0902E20E4F0758A1075B29339
:1000F0009001BCE0FF123C71122A8DE0FCA3E0FDF0
:10010000EF25E02464F582E43401F583ECF0A3EDFF
:10011000F0122A8DE0FCA3E0FD90018BE0FAA3E051
:10012000FBED2BFDEC3AFCA3E0FAA3E0FBC3ED9B57
:10013000FDEC9AFCEF122A92ECF0A3EDF074FFF5BF
:1001400009F50AF50BF50CE4F50DF50EF50FF510B4
:10015000F514F513F512F511122A8DE0FCA3E0FD5C
:10016000EF75F012A424B1F582E43401F583ECF0CC
:10017000A3EDF0E4F508C3E508940874809480408A
:1001800003020A3A9001BCE0FF122B09122A40E058
:10019000FCA3E04C6009EF122B09122A4080079063
:1001A00001BCE0122A92E0FEA3E0FF9001BCE0FD5A
:1001B000122A35EEF0A3EFF0ED122A35E0FEA3E0AF
:1001C000D3950EEE950D4016850D0F850E109001FE
:1001D000BCE0122A35E0F50DA3E0F50E801A122AD4
:1001E00030E0FCA3E0D39510EC950F400BEF122A02
:1001F00035E0F50FA3E0F510122A30E0FCA3E0C3D0
:10020000950AEC9509501385090B850A0CEF122A03
:1002100035E0F509A3E0F50A801A122A30E0FCA3C4
:10022000E0C3950CEC950B500BEF122A35E0F50B63
:10023000A3E0F50C9001BCE0122A35E0FEA3E0FF3C
:10024000E4FCFDE5142FFFE5133EFEED3512FDEC59
:100250003511122A730508020956AE0DAF0EEFFBD9
:10026000122A5FAE0FAF10122A5CAE09AF0A122A33
:100270005CAE0BAF0C122A5CFC78021210249001C9
:10028000BCE0FD122AE0122AA7122ABD122A86FF1C
:100290004E7010122ADFF583E0FAA3E0FBEAFEEBD2
:1002A000FF8019EF25E0FFEE33FE122ADF122B024A
:1002B0002FFFEC3EFE7C007D03120D289001BCE078
:1002C000FD122ABE122AA7122A7C4E700B122ABDDA
:1002D000122A86FFED122A9E9001BCE0FF25E02441
:1002E0005AF582E43401122B02FDECC0E0EDC0E0CF
:1002F000EF122ABE122A86FFE4FCFD9001C91210FB
:100300004F9001BCE09001CDF0D0E0FDD0E0FCE4E6
:10031000FF1210D79001BCE0FD122A9EED122A4E6A
:10032000C083C082121043122A7C2400FFEE34E8FE
:10033000FE3395E0FDFC120EC5D082D08312104F23
:10034000122B2A0208629001BDE004F002084D90D1
:100350002E23E4F09001BCF0122AC84003020CEAFC
:10036000EF122A4EC083C082121043E8C0E0E9C0F9
:10037000E0EAC0E0EBC0E09001BCE02434122B3195
:10038000FBE4FAF9F8122A4A1210371239F9D0E0D0
:10039000FBD0E0FAD0E0F9D0E0F8120EC5D082D060
:1003A0008312104F122A4A121037E47B507AC3F995
:1003B000F8C3120FFD500A122A4A12105B0000C344
:1003C000509001BCE0FF122A4E121043E833500B4C
:1003D000EF122A4E12105B000000009001BCE0FFFB
:1003E000122AD5122B024C7009EF122A4E12103726
:1003F000802C9001BCE0122AD5122A86FF7C007D59
:10040000021210AAECF8EDF9EEFAEFFB122A4A12EA
:100410001037120EC5E47B03FAF9F8120F6B900146
:10042000BCE0FD122AD5F583EEF0A3EFF0122B15F8
:10043000122A864E700EED122AD5122A86FF122B32
:1004400015122AA79001BCE0FF122AAFC083C08218
:10045000121043EF122A7DFFE4FCFD120EC5D0827C
:10046000D08312104F9001BCE0FF122AEAF583E41A
:1004700075F001120DB3EF122AEA122A86FFD39407
:100480000AEE94004034EFFBEEFAE4F9F89001BC78
:10049000E0122AAF121037120F6B9001BCE0FD1270
:1004A0002B3B122AA7ED122AEAF583E4F0A3F0ED24
:1004B000122AAF12105B0000000090012CE07002C5
:1004C000A3E070409001BCE0FD122A7DFFED122BED
:1004D0003B122B02FD123C169001BCE0FD122B4595
:1004E000122AA7ED122B45122A86D39406EE940009
:1004F000401290012C7407F0A374D0F0A3E475F0BF
:1005000001120DB3122B2A020B3822BB010689827D
:100510008A83E0225002E722BBFE02E32289828A1C
:1005200083E49322BB010689828A83F0225002F77A
:1005300022BBFE01F322EF8DF0A4A8F0CF8CF0A433
:1005400028CE8DF0A42EFE22BC000BBE0029EF8D1C
:10055000F084FFADF022E4CCF875F008EF2FFFEE49
:1005600033FEEC33FCEE9DEC984005FCEE9DFE0F57
:10057000D5F0E9E4CEFD22EDF8F5F0EE8420D21CB2
:10058000FEADF075F008EF2FFFED33FD40079850FA
:1005900006D5F0F222C398FD0FD5F0EA22C2D5ECC1
:1005A00030E709B2D5E4C39DFDE49CFCEE30E715CD
:1005B000B2D5E4C39FFFE49EFE120D28C3E49DFD67
:1005C000E49CFC8003120D2830D507C3E49FFFE4B0
:1005D0009EFE22C5F0F8A3E028F0C5F0F8E58215EC
:1005E0008270021583E038F022BB010A89828A8377
:1005F000E0F5F0A3E022500687F009E71922BBFEE0
:1006000007E3F5F009E3192289828A83E493F5F080
:1006100074019322BB0110E58229F582E5833AF546
:1006200083E0F5F0A3E0225009E92582F886F0087E
:10063000E622BBFE0AE92582F8E2F5F008E222E5AF
:10064000832AF583E993F5F0A3E99322BB010DC555
:100650008229C582C5833AC583020DB35011C58274
:1006600029F808E5F026F618F5F0E58236F622BB03
:10067000FE11C58229F808E225F0F5F0F218E235FE
:1006800082F222F8E58229F582E5832AF583740156
:100690009325F0F5F0E4933822BB010A89828A831E
:1006A000F0E5F0A3F0225006F709A7F01922BBFEEF
:1006B00006F3E5F009F31922F8BB0111E58229F5EB
:1006C00082E5833AF583E8F0E5F0A3F0225009E9EA
:1006D0002582C8F608A6F022BBFE09E92582C8F2E9
:1006E000E5F008F222EF2BFFEE3AFEED39FDEC3893
:1006F000FC22C3EF9BFFEE9AFEED99FDEC98FC22E5
:10070000E88FF0A4CC8BF0A42CFCE98EF0A42CFC98
:100710008AF0EDA42CFCEA8EF0A4CDA8F08BF0A416
:100720002DCC3825F0FDE98FF0A42CCD35F0FCEB75
:100730008EF0A4FEA9F0EB8FF0A4CFC5F02ECD393A
:10074000FEE43CFCEAA42DCE35F0FDE43CFC227531
:10075000F008758200EF2FFFEE33FECD33CDCC33A2
:10076000CCC58233C5829BED9AEC99E58298400C0A
:10077000F582EE9BFEED9AFDEC99FC0FD5F0D6E4E8
:10078000CEFBE4CDFAE4CCF9A88222B800C1B900CE
:1007900059BA002DEC8BF084CFCECDFCE5F0CBF92F
:1007A0007818EF2FFFEE33FEED33FDEC33FCEB3327
:1007B000FB10D703994004EB99FB0FD8E5E4F9FA55
:1007C000227818EF2FFFEE33FEED33FDEC33FCC93A
:1007D00033C910D7059BE99A4007EC9BFCE99AF9CD
:1007E0000FD8E0E4C9FAE4CCFB2275F010EF2FFF3C
:1007F000EE33FEED33FDCC33CCC833C810D7079BA6
:10080000EC9AE899400AED9BFDEC9AFCE899F80F08
:10081000D5F0DAE4CDFBE4CCFAE4C8F922EB9FF59D
:10082000F0EA9E42F0E99D42F0EC6480C864809852
:1008300045F022EB9FF5F0EA9E42F0E99D42F0E898
:100840009C45F022E8600FECC313FCED13FDEE13A2
:10085000FEEF13FFD8F122E0FCA3E0FDA3E0FEA32E
:10086000E0FF22E0F8A3E0F9A3E0FAA3E0FB22EC2A
:10087000F0A3EDF0A3EEF0A3EFF022A8828583F0C1
:10088000D083D08212107212107212107212107273
:10089000E473E493A3C583C5F0C583C8C582C8F0DB
:1008A000A3C583C5F0C583C8C582C822A42582F527
:1008B00082E5F03583F58322E0FBA3E0FAA3E0F9BB
:1008C00022EBF0A3EAF0A3E9F022EC8EF0A4CCC571
:1008D000F0CCCDF8EFA4CEC5F02DFDE43CFCE8A4AF
:1008E0002EC8C5F03DFDE43CFCEFA4FFE5F028FE7A
:1008F000E43DFDE43CFC229001C7ECF0A3EDF09058
:1009000001C6EFF01233E7C083C0829001CDE0D082
:1009100082D0831233E1E070461233D81233F5C02F
:1009200083C0829001CDE0D082D0831233E11210D7
:1009300037E4FBFAF9F8C312101360231233D8120C
:1009400033FFC083C0829001CDE0D082D0831233C8
:10095000E1121037E4F8C3121013600302123B12C5
:10096000341CC39001C8E09FFF9001C7E09E1213A2
:10097000FCC083C0829001CDE0FCD082D0831233D2
:10098000E1EEF0A3EFF0ED1233E7123433E0605004
:100990009001C6E0FF12343AC083C0829001CDE0DE
:1009A000D082D0831233E1E0FCA3E0FDEF75F005C7
:1009B000A4248AF582E4343CF583E493FE74019325
:1009C000FFD3ED9FEC9E40181233D81233EBC08357
:1009D000C0829001CDE0D082D0831233E17405F063
:1009E00012341C1233D81233F5C083C0829001CD6B
:1009F000E0D082D0831233E112104F1233D8123478
:100A000009C083C0829001CDE0D082D0831233C16F
:100A10001233FFC083C0829001CDE0D082D0831218
:100A200033E112104F9001C6E0FF1233E7C083C0DC
:100A3000829001CDE0FED082D0831233E1E0D394E6
:100A40000074809480400EEF1233E775F00EEE12C2
:100A5000108CE014F09001C90213F81233D812334D
:100A6000F5C083C0829001CDE0D082D0831233E103
:100A70001210379001CE12104F1233D81233FFC02C
:100A800083C0829001CDE0D082D0831233E1121076
:100A9000379001D21234131233D8123448C083C0B5
:100AA000829001CDE0D082D0831233E1E0F9F812D8
:100AB0001024EFFBEEFAEDF9ECF8123416120ED218
:100AC0009001D612104F9001CE1210379001C9122A
:100AD0001043120EC59001D6121043120EC51234E7
:100AE0005212341C1233D81233F5C083C0829001E5
:100AF000CDE0D082D0831233E11234131233D812F6
:100B000033FFC083C0829001CDE0D082D083123306
:100B1000E1123413ECC0E0EDC0E0EEC0E0EFC0E065
:100B20001233D8123409C083C0829001CDE0D08244
:100B3000D0831233E1E0FEA3E0FBEEFAE4F9F8D053
:100B4000E0FFD0E0FED0E0FDD0E0FC120F6B1234ED
:100B5000529001C6E0640160030213F512341CEFE9
:100B6000FBEEFA123416C3EF9BFFEE9A1213FCC091
:100B700083C0829001CDE0FCD082D0831233E1EEBD
:100B8000F0A3EFF0ED12343A123433E0FEA3E0FFAD
:100B90009001C6E0FB75F005A42488F582E4343C9E
:100BA000F583E493FC740193FDD3EF9DEE9C4065C7
:100BB00012341CEB75F00EA41233F5C083C0829082
:100BC00001CDE0D082D0831233E112104F1233D81E
:100BD000123409C083C0829001CDE0D082D083124C
:100BE00033C11233FFC083C0829001CDE0D082D0E8
:100BF000831233E112104F1233D81233EBC083C08B
:100C0000829001CDE0D082D0831233E17405F012DE
:100C1000341C1234529001D212103722FE123C655D
:100C20009001C6E0FD75F00EA42403F582E43402C1
:100C3000F583229001B9121B97400302173F121A45
:100C4000B4FF121A4B121BA7121A47120DF4D39DB0
:100C5000E5F09C403F121AB4121A4B121BA7121A4D
:100C600047121BF29430EE9475400C9001BA7475E3
:100C7000F0A37430F08010121AB4FF121A4B121B3A
:100C8000A7121A47121B4B9001B9E0121BB1F58352
:100C9000E40214CB121A2A121BF29410EE9427408D
:100CA0000C9001BA7427F0A37410F08006121A2A6F
:100CB000121B4B121ABF9001B9E0FD121BB1121AA0
:100CC000DB30001DED121BB1121A62D3942CEE948E
:100CD000014014121B5CF5837427F0A37410F0809C
:100CE00006121B5C121AADE49001BAF0A3F0121ABE
:100CF0008CE0605B121B67D39400EC6480948040AE
:100D000020EF25E02422121AD4D3ED9FEC9E40114F
:100D10009001B9E0121BBBF583E4F0A37464F0808A
:100D2000229001B9E0FF121BBB121A73D39400EC9E
:100D30009400400F900105121A47120DF4FFE5F0E0
:100D4000121C069001B9E0121BE27401F0800F1230
:100D50001AEFF5837403F0A374E8F0123B53D390B9
:100D600001BBE094009001BAE064809480500302DB
:100D700016F5E0FEA3E0FF900105121AB7121A4B18
:100D8000121BFFEE3395E0FDFCE47BB87A88F9F89E
:100D9000C3120FFD500A9001BA7488F0A374B8F022
:100DA00030003C121A8CE07016EF25E0242CF8E697
:100DB000FC08E6FD121ABFC39DEE9C5063801A909A
:100DC00001B9E025E02422F8E6FC08E6FDA3E0FEF8
:100DD000A3E0FFC39DEE9C50477C007DC8803B9004
:100DE00001B9121B19121A73D39400EC9400500825
:100DF0009000F1E064207028EF25E02422121AD43C
:100E0000121B67C39FEC9E5017ED9400EC64809416
:100E100080400D121ABF7C007D0A120D7D121C0548
:100E2000121A8CE06074EF121AF4121A624E7011EA
:100E30009001B9A3E0FCA3E0FD121740121C05804D
:100E40002F121A55FF121B67123C16D3EF9432EE85
:100E50009400401C121AEF121A73D394C8EC940039
:100E6000400EEF121AF4F58374FF75F09C120DB367
:100E7000121A55FF7C007D071210AAECF8EDF9EE6E
:100E8000FAEFFB121ABFEE3395E0FDFC120EC5E43B
:100E90007B08FAF9F8120F6B8003121ABF9001B9A0
:100EA000E025E02434F582E43401121ADB121A55ED
:100EB000FFD39405EE9400400EEF9410EE94005092
:100EC000069001BAEE80159001B9121B3F121A73F9
:100ED000FDEF121A592DFFEE3C9001BAF0A3EFF08E
:100EE000D39001BBE094309001BAE0648094F54067
:100EF000077475F0A37430F0E5DB54047061121AC6
:100F0000BF90010E121AB7FD121A4B121BFFEF24ED
:100F1000A8FFEE8037E5DB54047044900105121AF7
:100F2000B7FF121A4B121C54EF121B41121A62FF28
:100F300090010E121AB7FD121A4B121BFF75F00228
:100F4000ED121A4E120DF424A8FFE5F03461FE9064
:100F5000010B12109875F002ED121A4E121BFF22AF
:100F60009001BCEFF0A3ECF0A3EDF0EF123240E003
:100F7000FEA3E0FF123C16D3EF9432EE9400401C27
:100F800012321012105B000000001231DCE4F0128B
:100F9000325A12323CEEF0A3EFF080431231CBE034
:100FA000FEA3E0FFD39400EE940040339001BDE037
:100FB000FCA3E0FDD3EF9DEE9C400B9001BCE01242
:100FC0003203E04401F09001BCE0FF1231CFE0FABF
:100FD000A3E0C39DEA9C5007123202E04402F09065
:100FE00001BCE0123215C083C08212104312325A83
:100FF000E4FCFD120EC5D082D08312104F9001BCCC
:10100000E0FF123263E475F001120DB3EF75F007E3
:10101000A4245CF582E4343CF583E493FE740193EC
:10102000FF9001BCE0FDC454F024E2F582E43401F9
:10103000F583E0FAA3E0C39FEA9E50030219C0EDD6
:10104000123263E0FEA3E0FFFBEEFAE4F9F8900150
:10105000BCE0123215121037120F6B9001BF121044
:101060004F1231CBE0FEA3E0FFEEC0E0EFC0E01294
:101070003270EFFDEEFCD0E0FFD0E0FE123C1690A7
:1010800001C3EEF0A3EFF09001BCE0FD75F007A402
:101090002457F582E4343CF583C37401939FE493B1
:1010A0009E401FED1231CFE0FEA3E04E6014900190
:1010B000BCE0FB12324DE0FEA3E0C394B8EE940B0B
:1010C00050219001BCE0FF1231CFE0FCA3E04C7056
:1010D00008EF12324DE4F0A3F01232701231CBEE71
:1010E00002196AEB600764016003021970E4900161
:1010F000C5F09001C3E0FEA3E0FFD39450EE94004E
:101100004006A37408F080329001BCE0123203E084
:1011100064036026D3EF943CEE940040089001C530
:101120007402F08015D39001C4E094329001C3E0C2
:10113000940040069001C57401F01231CBE0FEA38B
:10114000E0FFE4FCFD123276D3121013401190013F
:10115000C5E0FF1231CBE48FF0120DB30219A6D314
:101160009001C4E094509001C3E0940040581231C3
:10117000CBC083C082E0FEA3E0FF9001C5E0FDC3C9
:10118000EF9DFFEE9400D082D083F0A3EFF0803685
:101190001231CBE0FEA3E0FF4E700D123276EBFF72
:1011A000EAFEE9FDE8FC80167C007D071210AA1219
:1011B0003276120EC5E47B08FAF9F8120F6B123181
:1011C000CBEEF0A3EFF012321012105B0000000023
:1011D0001231DCE4F012327012323CEEF0A3EFF088
:1011E0001231CBE0FCA3E0FDD39400EC9400405618
:1011F00012325A123C169001BCE075F007A4245933
:10120000F582E4343CF583D37401939FE4939E40CC
:101210000F9001BCE0FF1231CF123222E4F08026A1
:101220009001BCE0FF75F007A4245BF582E4343C38
:10123000F583E493FE12322EE0C39E50091231CBA7
:10124000123222E004F012325A2290010212109857
:101250009001B9E0FF75F002A4F58285F083120DCC
:10126000F4FDACF0900108121098EF75F002A4F5AF
:101270008285F083229001B9E025E02434F582E4F0
:101280003401F583E0FEA3E022EF25E02400F5829F
:10129000E43401F583E0FCA3E0229001B9E075F0AD
:1012A0000AA4243DF582E43401F583229001B9E0DB
:1012B000FF243CF582E43401F58322EE8FF0120E18
:1012C00098ED75F00AA42443F582E43401F583E433
:1012D000F0A3F0229001081210989001B9E022903A
:1012E00001BAE0FEA3E0FF2275F008A42424F8E58B
:1012F0000825E028F8E6FE08E6FF22F583EEF0A3D5
:10130000EFF02275F00AA42441F582E43401229022
:1013100001B9E0FF25E02421F582E43402229001A6
:10132000B9E025E02470F582E434012212103790F0
:1013300001081210989001B922E0FF25E0241FF562
:1013400082E43402229001BAE0FFC39401748094D5
:101350008022EF25E02468F582E43401F58322E061
:10136000FF25E02430F582E4340122120DF4C39D00
:10137000FEE5F09C9001BAF0A3CEF022ED25E0242A
:1013800097F582E43401229001BAE0FCA3E0FD224B
:1013900025E02472F582E434012225E02460F58200
:1013A000E434012225E02462F582E4340122F5834D
:1013B000E475F001020DB3EFF0D3900218E0940051
:1013C000900217E0940022120DF4FDACF09001029F
:1013D0002225E02495F582E434012225E0241DF540
:1013E00082E43402229001B9E0FF25E0249FF582D7
:1013F000E4340122FDEF25E0246EF582E43401F5AA
:10140000832224B7F582E43401F58322EC8DF002C7
:101410000E98120DF4C39DFFE5F09CFED3EF22EE73
:101420008FF0020E98EE9001BAF0A3EFF022E0FDEB
:1014300025E02400F582E434012275F00AA4244555
:10144000F582E434012275F00AA42443F582E434E1
:1014500001229001051210989001B9E0FF2290023C
:10146000197403F0A37420F022EB25E0245EF582CA
:10147000E4340122E4F5F0020E98C3E50894037405
:101480008094802225E02432F582E434012275F034
:101490000202108CE49001BAF0A3F01226B1D390AE
:1014A0000218E09400900217E094004003021EB678
:1014B00090017D12104390011DE0FEA3E0FFE4FCCB
:1014C000FD120EC590017D12104F900181E475F060
:1014D00001120DB3C3900184E09464900183E09401
:1014E000005003021D4390017D121037ECC0E0ED67
:1014F000C0E0EEC0E0EFC0E0900181E0FEA3E0FBC1
:10150000EEFAE4F9F8D0E0FFD0E0FED0E0FDD0E064
:10151000FC120F6B90017D12104F90017D1210375D
:1015200090017BEEF0A3EFF0A312105B000000002F
:10153000E4900181F0A3F0A3F0A3F0900217E07013
:1015400002A3E0701E9001B9F01228C35015EF12EB
:1015500028D61227FE4E7003121EB79001B9E00480
:10156000F080E6E49001B9F01228C34003021EB6F1
:10157000743C2FF582E43401F583E0FF6023900191
:10158000B9E0FE1228651228F74C701590011DE095
:10159000FCA3E0FDEE122865F583ECF0A3EDF080EE
:1015A00022EF701F1228D09001B9E012280CC394CA
:1015B00096E5F09400500C12286012285912286FFA
:1015C0001228599001B9E01228651227FEFF4E70CB
:1015D00003021EAD90011DE0FCA3E0FDC3EF9DFFE3
:1015E000EE9CFE123C659001BAEEF0A3EFF01228DB
:1015F000601228F790011D1228E040139001BAE014
:10160000FCA3E0FDEF12281CECF0A3EDF0801E908F
:1016100001BAE0FEA3E0FFD394C8EE9400400EEEC2
:1016200013FEEF13FF122818EEF0A3EFF09001B9AC
:10163000E0FF12281CE0FCA3E0D3940AEC940050D5
:1016400003021EAD1228D075F002EF12280FD394BA
:1016500010E5F0942740429001B9E0FB1228701287
:1016600027FEC39428EE942350639001B9E0FA2436
:1016700034F582E43402F583E075F012A4FFAEF095
:10168000EA12281CE0FCA3E0FD120D16EB122870F4
:10169000F583EEF0A3EFF080341228D09001B9E08A
:1016A000FF12280CD394E8E5F09403402012286F31
:1016B0001227FEC39458EE94025012122818E0FC30
:1016C000A3E0FD12286FF583ECF0A3EDF09001B9D3
:1016D000E004F0021D48229001BCEFF0E0FF243C42
:1016E000F582E43401F583E07003021F81EF1228D4
:1016F0003B1227FE4E702690017BE0FEA3E0FF9098
:1017000001BCE0FD12283BF583EEF0A3EFF01228B8
:1017100005122828E5F0F0A3EFF0021FA19001BC0C
:10172000E012283B1227FEFF90017BE0FCA3E0FDC6
:10173000123C1690018F1210989001BCE0FD122807
:1017400093EE8FF0120E9874752D122881E070318F
:1017500090018F122808C39406E5F09400500E12F1
:101760002805122828E5F0F0A3EFF08014E4FFEF3D
:101770001228C8500C74752F1228817401F00F8044
:10178000EE1228361228F790017B1228E0400A74E6
:10179000762F1228B0E4F080281228AA7401F08075
:1017A00020122836122859EF12282AE4F0A3F074E8
:1017B000752F122881E4F0EF1228501228451228C4
:1017C0005912287AE070030220F61227F4D394000D
:1017D000EE940050030220F61228D09001BCE0FDE8
:1017E00012280CFFAEF0122829E0FCA3E0FD123C09
:1017F000169001BDEEF0A3EFF0900193EEF0A3EF91
:10180000F01227DCD39DEE95F0400CD39001BEE0A2
:10181000945A1228A350151227DCC39DEE95F05060
:10182000569001BEE094961228A3404B12287AE409
:10183000F0EF12283B1228591228D0EF12280CFF83
:101840009001BCE0FD12282AE0FAA3E0C39FEA95CC
:10185000F0500EED1228D6F583E4F0A374C8F080A2
:10186000109001BCE01228D6F5837401F0A3742C0B
:10187000F01228AAE4F0221227DCD39DEE95F04066
:101880004FD312289D40499001BCE01228461227F0
:10189000FEC39470EE9417503712288974FF75F0C8
:1018A000F8120E2C1228451228FE1228B81227FE14
:1018B000FFC394E8EE940350171228EC400F12284F
:1018C000B9F58374FF75F0F8120DB3800312285038
:1018D0001227DCC39DEE95F0503C12289D40371234
:1018E0002889E475F008120E2C1228B81228FE126E
:1018F00028451227FEFFC39470EE94175018122843
:10190000EC400D122846F58374FF75F0F8020DB314
:10191000122846122859229001B9EFF0A37402F060
:10192000A374BCF0D390019AE09400900199E094E4
:1019300000400C900102121B12121A33121BEC9081
:101940000217E07002A3E0600B9001BAE4F0A37408
:1019500064F0800B90001AE0641170037420F09022
:1019600001B9E0FB121A91E0601A9001B9E0FA1295
:101970001A7E12105B00000000EA121AE3121AAD80
:10198000EB022294121A7AC083C082121043E8C07C
:10199000E0E9C0E0EAC0E0EBC0E0900102121B12F7
:1019A000E0121A4B120DF4FFAEF0E4FCFDD0E0FBA8
:1019B000D0E0FAD0E0F9D0E0F8120EC5D082D083A2
:1019C00012104F9001B9E0FF121AE3121B8EEF12B2
:1019D0001C1A121A62FF9001BAE0FCA3E0FDC3EFEB
:1019E0009DEE9C500302229A121A7AC083C0821282
:1019F0001037ECC0E0EDC0E0EEC0E0EFC0E09001D9
:101A0000B9E0121AE3121A62FBEEFAE4F9F8D0E038
:101A1000FFD0E0FED0E0FDD0E0FC120F6BD082D012
:101A20008312104F121B0FE0121A4B120DF42432C6
:101A3000FFE435F0FEE4FCFD121A7A121043D312D3
:101A400010134040900217E07002A3E0703690013E
:101A5000B9E0FF121BE2E0702B9001B9E0FE121C0E
:101A600026121B8EEE121C26121A73D39406EC94C7
:101A7000004027EF121A7E121B0CE0FD121A4B12C7
:101A80001A9B8016121A7A121B0CE0FD121A4B12C6
:101A90001A9B74B72D121BE4E4F09001B9E0FB121D
:101AA0001A7E12105B00000000EB121AE3121AAD4E
:101AB0009001B9E0121C1A121AAD229001B9EFF090
:101AC000121B02121A62FFC39404EE9400502A9073
:101AD00001B9E0121A6AFD121B32C083C082900164
:101AE000B9E0FFD082D083121C6EECF0A3EDF0EFD2
:101AF000121B02121B8E0223AA9001BE7401F090E9
:101B000001BEE0FFC39404748094805038121B32ED
:101B1000C083C0829001B9E0FED082D083121C6ED7
:101B2000E0FCA3E0FDEF25E02466F582E43401F556
:101B30008375F002EE12108CECF0A3EDF09001BE74
:101B4000E004F080BA9001B9E0121A91E06003025B
:101B5000239A9001021210989001B9E0FD121A4BDD
:101B6000120DF4FFAEF0ED121A6AFD123C16C3EF2F
:101B70009428EE940050439001B9121C0E121A6280
:101B8000FF900108121098ED121A4B120DF4FDACE3
:101B9000F0123C16C3EF9414EE9400500590010827
:101BA00080039001021210989001B9E0FF121A4BC5
:101BB000120DF4121BD4E5F0800C9001B9E0FF1275
:101BC0001A6A121BD4ECF0A3EDF09001BA12105B6C
:101BD00000000000E49001BEF0121AFE121A62FF2B
:101BE0009001BEE0FDD3EF9DEE940040359001BA28
:101BF0001210439001BEE0121B33C083C0829001DB
:101C0000B9E0D082D083121C6EE0FEA3E0FFE4FCBA
:101C1000FD120EC59001BA12104F9001BEE004F003
:101C200080B79001BA121037ECC0E0EDC0E0EEC012
:101C3000E0EFC0E0121AFE121A62FBEEFAE4F9F8C5
:101C4000D0E0FFD0E0FED0E0FDD0E0FC120F6B90C2
:101C500001BA12104F9001BA021037D3900218E067
:101C60009F900217E09E400AA3E09FF0900217E0C9
:101C70009EF090021C1237D090021BE09C400CA3F7
:101C8000E09FF090021BE09EF08002D28AD3900287
:101C90001AE09F900219E09E400AA3E09FF0900294
:101CA00019E09EF01237E2500312381AD390021E48
:101CB000E09F90021DE09E400AA3E09FF090021D6D
:101CC000E09EF0D3900220E09F90021FE09E400A29
:101CD000A3E09FF090021FE09EF0D3900222E09FCD
:101CE000900221E09E400AA3E09FF0900221E09E36
:101CF000F0D3900198E09F900197E09E400AA3E006
:101D00009FF0900197E09EF09002241237D090024D
:101D100023E09C400AA3E09FF0900223E09EF01293
:101D200037F0500312381AD3900186E09F90018556
:101D3000E09E400AA3E09FF0900185E09EF0EF2432
:101D400001FDE43EFCD3900167E09D900166E09CBC
:101D5000400AA3E09FF0900166E09EF0D390019AC4
:101D6000E09F900199E09E400AA3E09FF0900199C6
:101D7000E09EF01237FE500312381A12380C50034E
:101D800012381AD390012DE09F90012CE09E400A5A
:101D9000A3E09FF090012CE09EF0227B017A007975
:101DA000007DFF7C00123C2C7B017A0179007DB71D
:101DB0007C00123C2C7B017A0279167D107C00128B
:101DC0003C2C902DE0E493900001F09000047411FD
:101DD000F0A37422F0A37433F0902DE2E49390000A
:101DE00012F0902DE3E493900014F09000FB740146
:101DF000F090004A7411F09000F114F0900024F07B
:101E0000A37420F07B017A00793E9001021210A1A8
:101E10007A0079429001081210A17A007946900167
:101E2000051210A17A00793290010B1210A17A00EC
:101E3000793A90010E1210A17A00793690011112B0
:101E400010A17A00796090011F1210A17A007980A8
:101E500090018F1210A17A00790A9001391210A115
:101E60007A00791B9001361210A17A00792A90012C
:101E7000141210A17A0079269001171210A17A008D
:101E8000792E90011A1210A1900114121098E47585
:101E9000F0C8120E79900117121098E475F06412D0
:101EA0000E7990011A121098E475F096120E797559
:101EB0002C00752DC8752200752396900020741093
:101EC000F09002177407F0A374D0F0E4900216F0BB
:101ED00022758D20438D20538D7FE4F5B275B6FFBA
:101EE00075B7FF75B2A243B20153A8FB538B7F7540
:101EF0008B10438B08E58B20E7030080F8538B7F22
:101F0000758B11438B08E58B20E7030080F8900266
:101F100032E5B5F0A3E5B4F0758B01E4F5B27F02CC
:101F2000FE12243B123BC6E4F58D123C7CAEF090D1
:101F300001B5EEF0A3EFF090011DE07002A3E07098
:101F4000030227A2120DC9FFC390011EE09FFF905C
:101F5000011DE095F0FE123C65D3EF940AEE64801B
:101F600094804023123C7CC390011EE09F90011D91
:101F7000E095F05006E475F001800790011D74FFB4
:101F8000F5F0120DB3804390011DE0FEA3E0FF7C4D
:101F9000007D031210AAECC0E0EDC0E0EEC0E0EF5F
:101FA000C0E0123C7CAEF0E4FCFDD0E0FBD0E0FAF7
:101FB000D0E0F9D0E0F8120EC5E47B04FAF9F8128B
:101FC0000F6B90011DEEF0A3EFF090011EE025E0F5
:101FD000FF90011DE033FE7C007D64120D2890010E
:101FE0008BEEF0A3EFF0A3E07002A3E0700D900180
:101FF0008BE0FFA3E0A3CFF0A3EFF0229001051246
:1020000010989001BCE0FF75F002A4F58285F08382
:10201000120DF4FDEF25E02479F582E43401F58317
:10202000E0FEA3E022900105121098ED75F002A4E5
:10203000F58285F083020DF49001B9E025E0249D3E
:10204000F582E43401F58322FFED25E02479F58261
:10205000E43401F583229001BCE0FF25E02477F50C
:1020600082E4340122EF25E02489F582E434012260
:1020700025E02487F582E43401F583E4F0A3F0221F
:102080009001B9E0FF25E0249BF582E4340122EFC2
:1020900025E0249FF582E43401229001BCE0FF2476
:1020A00075F582E43401F5832290010812109890AE
:1020B00001BCE075F002A4F58285F083229001BE98
:1020C000E094149001BDE09400229001BCE02476DD
:1020D000F582E43401F58322EF25E02487F582E4DC
:1020E0003401229001B9E0FFC394017480948022EE
:1020F00090010502109825E02485F582E434012240
:10210000FDE0FAA3E0FBD3ED9BEC9A22EF9408EEFE
:1021100094009001BCE022F583E0FCA3E022F5836B
:10212000E475F008020DB39001BFEFF0902E22E0AD
:10213000FF9001C3E4F0A3EFF0758A50902E227453
:1021400001F09001BFE012376C7404F0A3E4F0904A
:1021500001C0F09001C0E0FFC3940D7480948040F2
:1021600003022A23EFF87E02E4088006CEA2E713DA
:10217000CE13D8F8FF9001C1EEF0A3EFF04E700738
:102180009001C1F0A304F0902E207401F0902E2055
:10219000E030E2F99001BFE0FF902E0012376FE0CF
:1021A000FCA3E0D394FEEC94074040123792E0FE8B
:1021B000A3E0FF9001C1E0FCA3E0FDEF2DFFEE3CAA
:1021C000FEC3EF94FFEE94079001BFE075F002901C
:1021D0002E10500B12108CEC8DF0120DB380541297
:1021E000108C7407F0A374FFF080489001BFE0FFEB
:1021F00012376CE0FCA3E0FD9001C1E0FAA3E0FB24
:10220000D3ED9BEC9A4021123792C083C082C3A3C6
:10221000E09BFF0582D5820215831582E09AD08269
:10222000D083F0A3EFF0800B9001BFE012376CE495
:10223000F0A3F0902E20E4F0F58D9001C0E004F0C2
:102240000229339001C3A3E0902E22F0758A102258
:102250009001BCE0FF75F012A424A1F582E43401E2
:10226000F583E50875F00202108C9001BCE025E0D2
:1022700025E024C2F582E43401F58322CBEFCBEED6
:10228000FAC3E5149BFFE5139AFEE5129400FDE501
:102290001194008F148E138D12F51122ED25E02478
:1022A0005AF582E43401F583E0FEA3E0229001BCFC
:1022B000E0FF25E024BEF582E43401F5832225E029
:1022C000245AF582E43401F583EEF0A3EFF02225E1
:1022D000E025E02426F582E43401F58322ED25E0B3
:1022E0002456F582E43401229001BCE0FFC394013E
:1022F000748094802225E02460F582E4340122ED8C
:1023000025E024B3F582E434012225E0242AF58275
:10231000E4340122F583E4932420F582E4342EF59D
:102320008322F583E0FCA3E02275F012A424A3F538
:1023300082E4340122ED25E02452F582E4340122C6
:10234000EF9008069390080393229001BCE004F0FC
:1023500022F582E43402F583E0FF2225E02424F50F
:1023600082E434012225E02422F582E4340122C0F3
:10237000E0C0F0C083C082C0D0E8C0E0D2AFD3904C
:102380000218E09400900217E0940040031237C94D
:10239000D390021CE0940190021BE09400400512CF
:1023A00037C98002D28AD390021AE09400900219B1
:1023B000E0940040031237C91237E250031237DBB2
:1023C000D390021EE0940090021DE094004003129E
:1023D00037C9D3900220E0940090021FE09400409F
:1023E000031237C9D3900222E09400900221E094B6
:1023F0000040031237C9D3900198E09400900197F0
:10240000E0940040031237C9D3900224E094019075
:102410000223E0940040031237C91237F050031230
:1024200037DBD3900186E09400900185E094004072
:10243000031237C9D3900167E09401900166E094DC
:102440000040031237C9D390019AE094009001999B
:10245000E0940040031237C91237FE50031237DBF5
:1024600012380C50031237DBD390012DE09400900A
:10247000012CE0940040031237C9D0E0F8D0D0D04E
:1024800082D083D0F0D0E0329001B9121B97400384
:10249000022D7D3000429001B9E0121B5D121A62DC
:1024A0004E9001B96019E0FF25E0242CF87627084A
:1024B0007610EF25E02422F8761F0876408045E06C
:1024C000FF25E0242CF87613087688EF25E02422F7
:1024D000F87611087694802C121BC5121A7324C842
:1024E000FDE43CF8EF25E0242CC8F608EDF6121BBD
:1024F000C5121A732496FDE43CF8EF25E02422C8A7
:10250000F608EDF6121C32121A4B120DF4FDEF25EF
:10251000E0242C121AD4C3ED9FE5F09E50249001C4
:10252000B9E0121A91E06031121C32121A4B120DEE
:10253000F4FDEF25E02422121AD4C3ED9FE5F09EAE
:1025400040179001B9121B19121A734C703A743C5F
:102550002F121A937401F0802F9000F1E064209004
:1025600001B97009E0121B1B121AAD800CE0121B9E
:102570001BF583E4F0A374C8F09001B9121A8FE43C
:10258000F0EF121BBB121AAD9001B9E0121A91E0E4
:102590006003121C3E90013CE090004BF022900141
:1025A000B87408F0A3E4F0A3743FF0A374DFF0E480
:1025B000FDFCF9123C50009001B8E0FEA3E02DF5BF
:1025C00082EE3CF583E493FF69F90DBD00010CBC7C
:1025D00037E5BDDFE29001BAE0FEA3E0F5828E832D
:1025E000E493FFE96F70089000017403F08005E444
:1025F000900001F0123C500022000000000000009A
:102600000300AB2374AA7583F5758255A5745575BF
:1026100083FA7582AAA574A57583F5758255A522DE
:1026200002030AB00BB60CFF090208FF0D770E0477
:1026300013071410108015001600019292071B2139
:102640000F0404040101111210120A0A030201907E
:1026500001BCEFF0E4F50CF50BF50AF509F50CF506
:102660000BF50AF509F508121C5A50259001BCE03B
:10267000121AC8E4FCFDE50C2FFFE50B3EFEED351C
:102680000AFDEC35098F0C8E0B8D0AF509050880C3
:10269000D6E47B03FAF9F8AF0CAE0BAD0AAC091225
:1026A0000F6B9001BCE0121B70121ADBE4750CA8D2
:1026B000750B61F50AF509F508121C5A5071900165
:1026C000BCE0FD121AC8ED121B70121A73FD123C09
:1026D00016D3EF940AEE94009001BCE0FF4008127C
:1026E0001B70121A73801175F008A42424F8E508F1
:1026F00025E028F8E6FC08E6FDEF25E02452F58207
:10270000E43401121A62FFC3ED9FFFEC9EFE339585
:10271000E0FDFCE50C2FFFE50B3EFEE50A3DFDE587
:10272000093C8F0C8E0B8D0AF5090508022E99E4E1
:102730007F607EEAFDFCAB0CAA0BA90AA809D312A4
:102740001013400BE4750C60750BEAF50AF509AE41
:102750000BAF0C221235F8123B7D7A0179701230E2
:10276000087A0179687D0812301C7A01796012308C
:10277000087A01795E1230127A0179621230127A87
:1027800001793C7D0112301C7F03123024E4FFEFFD
:10279000121B2A5049121A69FD900102121A47129F
:1027A0001BEC121A69FD121A44121BEC900105125F
:1027B0001A47121C5490010B121A47746175F0A845
:1027C000120E98900111121A47746175F0A8120E3A
:1027D0009890010E121A47121C540F022F6F7B01A2
:1027E0007A0179757D1A7C00123C2C7B017A017983
:1027F0003D7D0A7C00123C2CE4900007F090004ADA
:102800007410F0A3F0121C3E900225E0700FC390EC
:102810000218E094F4900217E09401500A90021715
:102820007401F0A374F4F0227B017D027C00123C61
:102830002C227B017D027C00123C2C227B017C003F
:10284000123C2C229001B9EFF0E49001BBF0900112
:10285000B9E0FF9001BBE0C39F507612082EE490D0
:1028600001BAF0121B255060123A809001BAE0FDC7
:10287000121B84121ADBED121B84F583E0F8A3E02F
:10288000FFED75F008A4242AC8F608EFF6ED75F000
:1028900008A4FF2424F9E4FAFBC0E0C0E0E9C0E0AA
:1028A00074262FF9E49001BF1210A19001C2E4F048
:1028B000A37406F0D0E0F9D0E0FAD0E0FB1238CBF8
:1028C0009001BAE004F0809B9001BBE004F002307C
:1028D0002EE49001BAF0121B25504E122E2F9001BB
:1028E000BA121C0E121ADBED121C64121A62FFEDF2
:1028F000121B7A121A73FD123C167C007D05120D14
:10290000289001BA121B3FF583ECF0A3EDF0EF1213
:102910001B7A121A62FF9001BAE0121C64121ADBD1
:102920009001BAE004F00230B622C0E0C083C08259
:10293000C0D075D018D2AFE5DB30E422D207C20692
:10294000E5DB30E114123C42E0F5DFEF640770692B
:10295000D28A900007F00231BCC2050231BFE5DB2C
:1029600030E52C9000F0E064AA7017758A10F5DA53
:10297000C2AFF5B2F5A8F5A9F58B758E01758DC0BE
:1029800080FED204300604C2068054C2078050C2C2
:1029900006E5DB30E125E5DB30E044123C42E0F5C2
:1029A000DFEF24F9600C24FA60042402700BD208D3
:1029B0008007D28A900007E4F0802120050A78156C
:1029C000A6DFD205D2068017123C42E5DFF0EF64A5
:1029D00024700990021904F0A374F4F078150675B8
:1029E000DBFFD0D0D082D083D0E0329001BCE0C4F5
:1029F00054F024E0F582E43401F58322EBC454F072
:102A000024DEF582E43401F583E4F0A3F09001BC08
:102A1000E0FFC454F024E2F582E43401F583E4F0ED
:102A2000A3F0EFC454F024E7F582E43401F58322E7
:102A30009001BCE0FBC454F024DAF582E43401F5E3
:102A40008322E0FDA3E09001BDCDF0A3EDF0EFC443
:102A500054F024E6F582E43401F583229001BCE0D1
:102A6000C454F024E4F582E43401F58322C454F024
:102A700024E8F582E43401F583229001BDE0FEA351
:102A8000E0FF22C454F024DEF582E43401F5832211
:102A90009001BF0210379001BF02104390014774AC
:102AA0000AF0A3748CF0123AF37B017A0179527D1B
:102AB000047C00123C2CE49001B8F09001B812376D
:102AC000BF5076123BA29001B8E090080693FF1227
:102AD000376CE0FCA3E0C39405EC9400400F123780
:102AE00092E0FEA3E0D394F0EE940740179001B873
:102AF000E0FF25E02447F582E43401F583E4F0A308
:102B0000F0123BA2902E23E4F09001B81237661227
:102B100037752FFFEC3EFE9001391210989001B8E6
:102B2000E075F002A4F58285F083EE8FF0120E9826
:102B30009001B8E004F002329B90001D7410F02266
:102B4000E4FFFD90021BE07004A3E06401701190AB
:102B50000007E06004D28AE4F0E490021BF0A3F0E6
:102B600090013CE0600E900024E064106006EF44A9
:102B700020FF8004EF4410FF90004AEFF09000FF28
:102B8000E0FC6F605B90004AE0FFEC6FFE9000FF9E
:102B9000EFF0208A1BD28A90021BE4F0A37403F0AA
:102BA00090021CE024FFFB90021BE034FF4B70F00E
:102BB000900007E0700790004AE05E8013EEF4FF9B
:102BC0009000FFE05FFDEEFF90004AE05FFFED4FF9
:102BD000900007F090021B7403F0A374E8F0C28A1F
:102BE0002275F00E12108CE0FEA3E0FFE4FCFD90D5
:102BF00001C9121043120EE09001C6E075F00EA458
:102C00002275F00E02108C75F00EA42402F582E4F9
:102C10003402F5832224FEF582E43401F583222474
:102C2000FAF582E43401F583222406F582E43402C5
:102C3000F5832212104F9001D20210379001C90281
:102C40001037ED75F005A42487F582E4343CF58354
:102C5000E49322EC75F00E02108C75F00EA42403A0
:102C6000F582E43402F583222405F582E43402F58A
:102C700083229001D202104F2008030234E8300072
:102C8000030234E8C208E49001B9F09001B91237A8
:102C9000BF506BE0FE123768E0FCA3E0FDEE123798
:102CA000A7ECF0A3EDF0123BA29001B91237661227
:102CB00037752FFFEC3EFE9001B9E0FD1237B3EE01
:102CC000F0A3EFF0ED1237B3E0FEA3E0FF9001397F
:102CD00012109875F002EDA4F58285F083EE8FF066
:102CE000120E98ED1237A7E0FEA3E0FFED12376851
:102CF000EEF0A3EFF09001B9E004F002346B900223
:102D0000197403F0A37420F022787FE4F6D8FD75DF
:102D1000812D0235330200000236EFE493A3F8E47C
:102D200093A34003F68001F208DFF48029E493A323
:102D3000F85407240CC8C333C4540F4420C883403C
:102D400004F456800146F6DFE4800B01020408100B
:102D5000204080903ABDE47E019360BCA3FF543FC5
:102D600030E509541FFEE493A360010ECF54C02543
:102D7000E060A840B8E493A3FAE493A3F8E493A333
:102D8000C8C582C8CAC583CAF0A3C8C582C8CAC597
:102D900083CADFE9DEE780BE308A7CD3900218E088
:102DA00094E8900217E09403506D900166E0700281
:102DB000A3E07063F5B2758D20438D20758D80433F
:102DC000A808D2AFF58B90012CE0FEA3E0FF4E6087
:102DD00005758E508003758EFE20042F20072CE58C
:102DE000DB54047026758A84200720E5DB540470C8
:102DF0001AF586758703000000758601EF4E6004A2
:102E00007F5080027FFE7E0012243B758B01758A05
:102E10001053A8F7123BC6227B017A0179FA7D1C78
:102E20007C00123C2CE4FDEDC3940274809480502D
:102E300062E49001B8F09001B8E0FFC3940174809F
:102E40009480504B123422FEED75F00EA4123448DB
:102E5000EF123434EEF012342204F87E00740108CC
:102E60008005C333CE33CED8F9FFED75F00EA41232
:102E70003409C083C0829001B8E0D082D08312337D
:102E8000E1EEF0A3EFF09001B8E004F00236160D89
:102E900002360722900020E0642070037421F09035
:102EA0000136121098120DC9641045F07003123AE1
:102EB0003D900001E064AA7003122D7E12391C209F
:102EC000090890001AE06410700D90001A7411F057
:102ED000C209E4900216F09000FBE06006E4F09076
:102EE0000216F0900166E07004A3E0640170109097
:102EF0000166F0A3F0900199F0A3F0900216F03073
:102F0000040CC2049002197401F0A374F4F022536B
:102F1000A87F123BE212257B123B2912080843A826
:102F200080E4F58D123674900216E0146016146079
:102F30001E24FE603E240470E812327C9002167457
:102F400001F080DD122F349002167402F080D2124C
:102F50003820900020E0FF64206008EF64216003C7
:102F6000123578900025E0641070B6900216740453
:102F7000F080AE1239B1900025E0641060A3900299
:102F8000167401F0809BE0FB90080693902E10755C
:102F9000F00202108CE0FEA3E0FF7C007D0A120D1F
:102FA00016EB25E02447F582E43401F583E0FCA329
:102FB000E02275F002EF902E1002108CEF25E02435
:102FC00066F582E434012225E024BCF582E4340174
:102FD000F5832225E024BAF582E43401F58322E06A
:102FE000FFC39401748094802274FFF5F0020DB346
:102FF000EF2401FDE43EFCD3E09D22E475F00102E4
:103000000DB3C3900146E094BC900145E0940222C8
:10301000C3900184E09464900183E0940022C39003
:1030200001E9E094B89001E8E0940B22C39001E339
:10303000E094F49001E2E0940122EE8FF0020DB3EF
:103040007F01123024121C74E49001B8F09001B892
:10305000121B28503B1239679001B8E0FF12229BE7
:10306000EEFCEFFD9001021210989001B8E0FF1203
:103070001A4B121BEC1214139001B8E0FF122C68CB
:103080009001B8E0FF1220F79001B8E004F080BD95
:10309000123320023458E4FEEEC394077480948007
:1030A000502FEE75F003A4241BF582E4342EF58333
:1030B000E5822FF582E43583F583E493FDEE75F028
:1030C00003A4241AF582E4342E122AF4EDF00E80C3
:1030D000C7EF7016EF25E02447F582E43401122A89
:1030E000864E7006902E217412F0229001C41210A8
:1030F000A19001BF1210989001C71210A19001C2B7
:10310000E07002A3E060349001C7121098120CEB3B
:10311000FF9001C4121098EF120D049001C5E475E0
:10312000F001120DB39001C8E475F001120DB390D7
:1031300001C274FFF5F0120DB380C222900013E0BB
:10314000FF900226E06F600CEFF09002237402F013
:10315000A37458F0900223E07004A3E06401702689
:10316000900226E0FF7E0064107002D200EF64201F
:103170004E7002C200900025E064106002D209E4A3
:10318000900223F0A3F022EF25E02452F582E434EC
:103190000112378B243CFDEC34F6FCEF25E0246073
:1031A000F582E43401F583E0FAA3E0C39DEA9C5084
:1031B0001612379C12378B4C701612379CF583749D
:1031C00001F0A374F4F02212379CF583E4F0A3F02D
:1031D00022900025E06410703FF5B2758D20438D7C
:1031E00020538D7F53A8F7F58BE5DB540470132033
:1031F0000710F58AF586758703000000758601754E
:103200008A10758B019002257401F09002197403E5
:10321000F0A37420F0123BC622C2D5E830E70FB20B
:10322000D5E4C39BFBE49AFAE499F9E498F8EC300E
:10323000E717B2D5123A2F120F6BE4C39BFBE49A47
:10324000FAE499F9E498F88003120F6B30D50DE495
:10325000C39FFFE49EFEE49DFDE49CFC22E49001FC
:10326000B8F0A3F0123C5000122DE475EA81E4F5A9
:10327000F6F5F475F308F5F275EB0700E5EC30E7C9
:10328000FBAFF3EFFEADF2EDFF900136121098EEBA
:103290008FF0120E79E4F5EC75EB30123C50002201
:1032A000EFFB121B7A121A62FF121C49121ADBEB97
:1032B000121B84121A73FDECC0E0EDC0E0121C4931
:1032C000121A62FFE4FCFD9001C912104FEB90014D
:1032D000CDF0D0E0FDD0E0FC7F010210D7C1074166
:1032E000023405C1084102280041022700C103C180
:1032F00001C100C10241022600C105011500C1043F
:10330000C1064101B7004100FF10C10943022F016E
:10331000023200E4FFEFC3940D748094805021EFDB
:1033200025E02401F582E4342EF583E493FEEF25B5
:10333000E02400F582E4342E122AF4EEF00F80D55A
:10334000902F56E0902E2BF022E4F5DA75DA404308
:10335000DA2030880875D74075D640800675D74288
:1033600075D6425392FE75DA5843A80275B80275B5
:10337000F802229001BCEFF0E075F010A424DAF915
:10338000740135F0FA7B017D107C00123C2C900119
:10339000BCE012324D740BF0A374B8F0227A0179BC
:1033A00056123B987A01795A123B987B017A01793F
:1033B000A17D127C00023C2C7B017D047C00123C30
:1033C0002C229001BEEFF0123BFD9001BEE0FF12F7
:1033D00038769001BEE090080693FF12290790010D
:1033E000BEE0FF023C71E5B254016006E5A854104E
:1033F000700F75B29275B6F9E4F5B743B20143A800
:103400001022758A10538AEF758601758F05E4F5D1
:10341000AB75AC0F75913E759201D28A22EFF874AC
:1034200001088002C333D8FC42AB122B20F4529126
:1034300052935391DF22D3EF9DEE9C4007EF9DFF07
:10344000EE9CFE22C3ED9FFFEC9EFE22ED4C601130
:10345000E4120D040429F9E43AFAED1D70EE1C8023
:10346000EB227815E6FF2400F582E43400F5832290
:10347000758A10538AEF22009600960701F4000027
:103480000000000000EE30E707C3E49FFFE49EFE6B
:1034900022122B20429142884391202290022F1227
:1034A0001098120DC9FF2204001E0019010014001B
:1034B00014000000000000000000000000000000F8
:1034C00000000000000000000000000000000000FC
:1034D00000000000000000000000000000000000EC
:1034E00000000000000000000000000000000000DC
:1034F00000000000000000000000000000000000CC
:1037F0000000000000000000000000000000001EAB
:1038000000000000000000000000000000000000B8
:1038100000000000000000000000000000000000A8
:00000001FF
