:1000000000220000000300005F1A00000000000052
:1000100000000000000000000000000000000000E0
:10002000023506120BDB900002E42202310A0102C3
:10003000200001023D62023C80000002081ED2AF97
:100040003200000223C4D2AF320000020826BB01F6
:100050000689828A83E0225002E722BBFE02E32265
:1000600089828A83E49322BB010689828A83F022F3
:100070005002F722BBFE01F322EF8DF0A4A8F0CFCF
:100080008CF0A428CE8DF0A42EFE22BC000BBE0066
:1000900029EF8DF084FFADF022E4CCF875F008EF85
:1000A0002FFFEE33FEEC33FCEE9DEC984005FCEEAA
:1000B0009DFE0FD5F0E9E4CEFD22EDF8F5F0EE84DB
:1000C00020D21CFEADF075F008EF2FFFED33FD40A0
:1000D00007985006D5F0F222C398FD0FD5F0EA221A
:1000E000C2D5EC30E709B2D5E4C39DFDE49CFCEE3B
:1000F00030E715B2D5E4C39FFFE49EFE12086BC340
:10010000E49DFDE49CFC800312086B30D507C3E43A
:100110009FFFE49EFE22C5F0F8A3E028F0C5F0F8AA
:10012000E582158270021583E038F022BB010A894E
:10013000828A83E0F5F0A3E022500687F009E719F0
:1001400022BBFE07E3F5F009E3192289828A83E4E2
:1001500093F5F074019322BB0110E58229F582E545
:10016000833AF583E0F5F0A3E0225009E92582F80F
:1001700086F008E622BBFE0AE92582F8E2F5F008DF
:10018000E222E5832AF583E993F5F0A3E99322BB04
:10019000010DC58229C582C5833AC5830208F65080
:1001A00011C58229F808E5F026F618F5F0E5823643
:1001B000F622BBFE11C58229F808E225F0F5F0F21F
:1001C00018E23582F222F8E58229F582E5832AF5E4
:1001D0008374019325F0F5F0E4933822BB010A897A
:1001E000828A83F0E5F0A3F0225006F709A7F01900
:1001F00022BBFE06F3E5F009F31922F8BB0111E575
:100200008229F582E5833AF583E8F0E5F0A3F02250
:100210005009E92582C8F608A6F022BBFE09E925A7
:1002200082C8F2E5F008F222EF2BFFEE3AFEED393C
:10023000FDEC38FC22C3EF9BFFEE9AFEED99FDEC3E
:1002400098FC22E88FF0A4CC8BF0A42CFCE98EF073
:10025000A42CFC8AF0EDA42CFCEA8EF0A4CDA8F02E
:100260008BF0A42DCC3825F0FDE98FF0A42CCD35F2
:10027000F0FCEB8EF0A4FEA9F0EB8FF0A4CFC5F05C
:100280002ECD39FEE43CFCEAA42DCE35F0FDE43C55
:10029000FC2275F008758200EF2FFFEE33FECD33A0
:1002A000CDCC33CCC58233C5829BED9AEC99E582E7
:1002B00098400CF582EE9BFEED9AFDEC99FC0FD573
:1002C000F0D6E4CEFBE4CDFAE4CCF9A88222B80063
:1002D000C1B90059BA002DEC8BF084CFCECDFCE52E
:1002E000F0CBF97818EF2FFFEE33FEED33FDEC3352
:1002F000FCEB33FB10D703994004EB99FB0FD8E5D7
:10030000E4F9FA227818EF2FFFEE33FEED33FDEC1F
:1003100033FCC933C910D7059BE99A4007EC9BFC15
:10032000E99AF90FD8E0E4C9FAE4CCFB2275F010A1
:10033000EF2FFFEE33FEED33FDCC33CCC833C810C6
:10034000D7079BEC9AE899400AED9BFDEC9AFCE8F4
:1003500099F80FD5F0DAE4CDFBE4CCFAE4C8F92241
:10036000EB9FF5F0EA9E42F0E99D42F0EC6480C814
:1003700064809845F022EB9FF5F0EA9E42F0E99DFB
:1003800042F0E89C45F022E8600FECC313FCED134B
:10039000FDEE13FEEF13FFD8F122E0FCA3E0FDA376
:1003A000E0FEA3E0FF22E0F8A3E0F9A3E0FAA3E077
:1003B000FB22ECF0A3EDF0A3EEF0A3EFF022A88275
:1003C0008583F0D083D082120BB5120BB5120BB51A
:1003D000120BB5E473E493A3C583C5F0C583C8C508
:1003E00082C8F0A3C583C5F0C583C8C582C822A44E
:1003F0002582F582E5F03583F58322E0FBA3E0FA60
:10040000A3E0F922EBF0A3EAF0A3E9F022EC8EF0EE
:10041000A4CCC5F0CCCDF8EFA4CEC5F02DFDE43CC6
:10042000FCE8A42EC8C5F03DFDE43CFCEFA4FFE5CC
:10043000F028FEE43DFDE43CFC22E4900234F0129E
:10044000307F5010EF123032120B9E000027101236
:1004500030F980EBE4900235F0900235E0C394056A
:10046000748094804003020DE0E4900234F0123076
:100470007F4003020DD7A3E02401FDE433FC749E0A
:100480002F123100D3ED9F7480F86C984003020D59
:10049000D1900234E0FF12382D900234E0FF123C7C
:1004A000D1758A5075B28F902E207401F0902E2055
:1004B000E030E2F9900234E0FF9008119375F00209
:1004C000902E00120BCFE0FCA3E0FD1230B6F583B6
:1004D000ECF0A3EDF0902E20E4F0758A1075B29345
:1004E000900234E0FF123D57123058123071FDEF88
:1004F00025E02489F582E4340112305124CCF582C0
:10050000E43401123078FD1230B612304A2DFFEE7D
:100510003CFE12309A24D0F582E43401F583E0FAEF
:10052000A3E0FBC3EF9BFFEE9AFEED1230B7F5831D
:10053000EEF0EF123056123071FD1230C112305110
:100540001230A4123078FD4C70091230C112304ABA
:10055000FF801F900234E0FBED25E0FFEC33FEEB63
:100560001230C21230782FFFEC3EFE7C007D031269
:10057000086B12309A1230A41230691230404E705B
:100580000CED1230A212304AFFED123060123058DA
:100590002479F582E43401123078FDECC0E0EDC03E
:1005A000E0EF1230A212304AFFE4FCFD9002451247
:1005B0000B92900234E0900249F0D0E0FDD0E0FCD4
:1005C000E4FF120FA4900234E0FD123060ED12300F
:1005D00032C083C082120B861230402400FFEE34FA
:1005E000E8FE3395E0FDFC120A08D082D083120B9E
:1005F000921230F9020C4E900235E004F0020C39F0
:10060000902E23E4F0900234F012307F4003020F6A
:10061000A3EF123032C083C082120B86E8C0E0E93B
:10062000C0E0EAC0E0EBC0E0900234E0249E12316A
:1006300000FBE4FAF9F812302E120B7A123AD6D0F7
:10064000E0FBD0E0FAD0E0F9D0E0F8120A08D0825E
:10065000D083120B9212302E120B7AE47B507AC3A5
:10066000F9F8C3120B40500A12302E120B9E0000F4
:10067000C350900234E0FF123032120B86E8335040
:100680000BEF123032120B9E000000001230581295
:1006900030AE1230784C7009EF123032120B7A8083
:1006A0002C900234E01230AC12304AFF7C007D0204
:1006B000120BEDECF8EDF9EEFAEFFB12302E120B07
:1006C0007A120A08E47B03FAF9F8120AAE12309A99
:1006D0001230AEF583EEF0A3EFF01230E412304AA0
:1006E0004E700EED1230AC12304AFF1230E4123070
:1006F0006912305812308EC083C082120B86EF12FE
:100700003041FFE4FCFD120A08D082D083120B9224
:100710001230581230DCF583E475F0011208F6EF60
:100720001230DA12304AFFD3940AEE94004036EFCA
:10073000FBEEFAE4F9F8900234E012308C120B7AF6
:10074000120AAE12309A2428F582E434011230697C
:10075000ED1230DAF583E4F0A3F0ED12308C120BD9
:100760009E00000000900138E07002A3E0704E90FF
:100770000234E0FD123041FFED25E02428F582E44B
:100780003401123078FD123CEA12309A2424F582AA
:10079000E43401123069ED25E02424F582E43401CB
:1007A00012304AD39406EE94004012900138740738
:1007B000F0A374D0F0A3E475F0011208F61230F93A
:1007C000020DE922900243ECF0A3EDF0900242EF1B
:1007D000F0123404C083C082900249E0D082D083FA
:1007E0001233FEE070461233F5123412C083C08219
:1007F000900249E0D082D0831233FE120B7AE4FBE0
:10080000FAF9F8C3120B5660231233F512341CC0E8
:1008100083C082900249E0D082D0831233FE120B53
:100820007AE4F8C3120B566003021108123439C37C
:10083000900244E09FFF900243E09E1212C9C083E1
:10084000C082900249E0FCD082D0831233FEEEF0E9
:10085000A3EFF0ED123404123450E06050900242E5
:10086000E0FF123457C083C082900249E0D082D0AA
:10087000831233FEE0FCA3E0FDEF75F005A424D95C
:10088000F582E4342DF583E493FE740193FFD3EDF8
:100890009FEC9E40181233F5123408C083C082903A
:1008A0000249E0D082D0831233FE7405F01234394D
:1008B0001233F5123412C083C082900249E0D08214
:1008C000D0831233FE120B921233F5123426C083FA
:1008D000C082900249E0D082D0831233DE12341CF1
:1008E000C083C082900249E0D082D0831233FE12CE
:1008F0000B92900242E0FF123404C083C082900247
:1009000049E0FED082D0831233FEE0D3940074809D
:100910009480400EEF12340475F00EEE120BCFE00F
:1009200014F09002450212C51233F5123412C0833E
:10093000C082900249E0D082D0831233FE120B7A3B
:1009400090024A120B921233F512341CC083C082FB
:10095000900249E0D082D0831233FE120B7A9002CB
:100960004E1234301233F5123465C083C0829002C7
:1009700049E0D082D0831233FEE0F9F8120B67EF22
:10098000FBEEFAEDF9ECF8123433120A159002522C
:10099000120B9290024A120B7A900245120B8612A9
:1009A0000A08900252120B86120A0812346F12348F
:1009B000391233F5123412C083C082900249E0D05C
:1009C00082D0831233FE1234301233F512341CC03D
:1009D00083C082900249E0D082D0831233FE123469
:1009E00030ECC0E0EDC0E0EEC0E0EFC0E01233F567
:1009F000123426C083C082900249E0D082D0831294
:100A000033FEE0FEA3E0FBEEFAE4F9F8D0E0FFD01D
:100A1000E0FED0E0FDD0E0FC120AAE12346F90028E
:100A200042E0640160030212C2123439EFFBEEFAB5
:100A3000123433C3EF9BFFEE9A1212C9C083C082F7
:100A4000900249E0FCD082D0831233FEEEF0A3EF97
:100A5000F0ED123457123450E0FEA3E0FF90024252
:100A6000E0FB75F005A424D7F582E4342DF583E48A
:100A700093FC740193FDD3EF9DEE9C4065123439D5
:100A8000EB75F01CA4123412C083C082900249E0BE
:100A9000D082D0831233FE120B921233F512342619
:100AA000C083C082900249E0D082D0831233DE122C
:100AB000341CC083C082900249E0D082D0831233BC
:100AC000FE120B921233F5123408C083C0829002DA
:100AD00049E0D082D0831233FE7405F0123439120B
:100AE000346F90024E120B7A22FE123D4B9002425E
:100AF000E0FD75F01CA42401F582E43402F58322A4
:100B0000900231121A8E40030216191219041209AA
:100B100037D39DE5F09C403490010A1219B01219A8
:100B20000F121A37D3EF9430EE9475400C900232C6
:100B30007475F0A37430F08006121904121A4290F2
:100B40000231E0121A9EF583E402139F9001041211
:100B500019B0FF121925121AA8121921121A37D327
:100B6000EF9410EE9427400C9002327427F0A37497
:100B700010F080139001041219B0FF121925121AF7
:100B8000A8121921121A421219D3900231E0FD1253
:100B90001A9E1219CB30001DED121A9E12193CD369
:100BA000942CEE94014014121A53F5837427F0A389
:100BB0007410F08006121A531219A6E4900232F053
:100BC000A3F0121966E0606F121A5ED39400EC6411
:100BD0008094804020EF25E024221219C4D3ED9F99
:100BE000EC9E4011900231E0121AB2F583E4F0A3BA
:100BF0007464F08022900231E0FF121AB212194D93
:100C0000D39400EC9400400F9001071219211209AF
:100C100037FFE5F0121AED900231E0FF121ABC74B2
:100C200001F0EF25E0247DF582E43402F583740FB2
:100C3000F0A374A0F0800F1219E6F5837403F0A3FB
:100C400074E8F0123C32D3900233E0940090023208
:100C5000E06480948050030215D5E0FEA3E0FF120B
:100C600019AD121925121AC6EE3395E0FDFCE47B8E
:100C7000B87A88F9F8C3120B40500A90023274888F
:100C8000F0A374B8F030003C121966E07016EF253E
:100C9000E02436F8E6FC08E6FD1219D3C39DEE9C6D
:100CA0005063801A900231E025E02422F8E6FC0827
:100CB000E6FDA3E0FEA3E0FFC39DEE9C50477C0051
:100CC0007DC8803B900231121A1212194DD3940044
:100CD000EC940050089000F1E064207028EF25E0CB
:100CE00024221219C4121A5EC39FEC9E5017ED9471
:100CF00000EC64809480400D1219D37C007D0A12B0
:100D000008C0121AEC121966E0606FEF1219EB12AC
:100D1000193C4E7011900231A3E0FCA3E0FD1216C5
:100D20001A121AEC802F12192FFF121A5E123CEAC7
:100D3000D3EF9432EE9400401C1219E612194DD3F1
:100D400094C8EC9400400EEF1219EBF58374FF7514
:100D5000F09C1208F612192FFF7C007D07120BED94
:100D6000900232121975EE3395E0FDFC120A08E488
:100D70007B08FAF9F8120AAE80031219D3900231F7
:100D8000E025E02444F582E434011219CB12192F36
:100D9000FFD39405EE9400400EEF9410EE940050B3
:100DA00006900232EE8015900231121A2B12194D64
:100DB000FDEF1219332DFFEE3C900232F0A3EFF05D
:100DC000D3900233E09430900232E0648094F54096
:100DD000077475F0A37430F0E5DB5404705B1219EE
:100DE000D39001101219B0FD121925121AC6EF2462
:100DF000A8FFEE8031E5DB5404703E1219ADFF12FE
:100E00001925121B2FEF121A2D12193CFF900110F9
:100E10001219B0FD121925121AC6ED121925120960
:100E20003724A8FFE5F03461FE90010D120BDB754D
:100E3000F002ED121928121AC622900234EFF0A324
:100E4000ECF0A3EDF0EF1232F9E0FEA3E0FF123C6C
:100E5000EAD3EF9432EE9400401C1232C9120B9E7A
:100E600000000000123295E4F01233131232F5EE56
:100E7000F0A3EFF08043123284E0FEA3E0FFD394AE
:100E800000EE94004033900235E0FCA3E0FDD3EF88
:100E90009DEE9C400B900234E01232BCE04401F025
:100EA000900234E0FF123288E0FAA3E0C39DEA9C8E
:100EB00050071232BBE04402F0900234E01232CE0E
:100EC000C083C082120B86123313E4FCFD120A08A1
:100ED000D082D083120B92900234E0FF12331CE4D4
:100EE00075F0011208F6EF75F007A42442F582E4CC
:100EF000343DF583E493FE740193FF900234E0FDEA
:100F0000C454F0245EF582E43402F583E0FAA3E0F1
:100F1000C39FEA9E500302189AED12331CE0FEA311
:100F2000E0FFFBEEFAE4F9F8900234E01232CE1260
:100F30000B7A120AAE900237120B92123284E0FE44
:100F4000A3E0FFEEC0E0EFC0E0123329EFFDEEFCBE
:100F5000D0E0FFD0E0FE123CEA90023BEEF0A3EFBF
:100F6000F0900234E0FD75F007A4243DF582E434EE
:100F70003DF583C37401939FE4939E401FED1232AD
:100F800088E0FEA3E04E6014900234E0FB123306CA
:100F9000E0FEA3E0C394B8EE940B5021900234E03D
:100FA000FF123288E0FCA3E04C7008EF123306E435
:100FB000F0A3F0123329123284EE021844EB6007DA
:100FC0006401600302184AE490023DF090023BE0A5
:100FD000FEA3E0FFD39450EE94004006A37408F003
:100FE0008032900234E01232BCE064036026D3EF1A
:100FF000943CEE9400400890023D7402F08015D3BA
:1010000090023CE0943290023BE094004006900253
:101010003D7401F0123284E0FEA3E0FFE4FCFD1217
:10102000332FD3120B56401190023DE0FF12328451
:10103000E48FF01208F6021880D390023CE094503E
:1010400090023BE094004058123284C083C082E09A
:10105000FEA3E0FF90023DE0FDC3EF9DFFEE940094
:10106000D082D083F0A3EFF08036123284E0FEA36A
:10107000E0FF4E700D12332FEBFFEAFEE9FDE8FCB6
:1010800080167C007D07120BED12332F120A08E444
:101090007B08FAF9F8120AAE123284EEF0A3EFF0F0
:1010A0001232C9120B9E00000000123295E4F012B9
:1010B00033291232F5EEF0A3EFF0123284E0FCA3F4
:1010C000E0FDD39400EC94004056123313123CEA36
:1010D000900234E075F007A4243FF582E4343DF536
:1010E00083D37401939FE4939E400F900234E0FFFA
:1010F0001232881232DBE4F08026900234E0FF7571
:10110000F007A42441F582E4343DF583E493FE1214
:1011100032E7E0C39E50091232841232DBE004F061
:101120001233132290010A120BDB900231E0FF759B
:10113000F002A4F58285F083120937FDACF090012E
:1011400004120BDBEF75F002A4F58285F083229088
:101150000231E025E02444F582E43401F583E0FE29
:10116000A3E022EF25E02400F582E43401F583E0DA
:10117000FCA3E022900231E075F00AA42450F5822D
:10118000E43401F58322900231E0FF244EF582E43D
:101190003401F58322ECF8EDF9EEFAEFFBE0FEA363
:1011A000E0FF22120B7A900234EEF0A3EFF0EB7521
:1011B000F00AA42456F582E434012275F00AA4242E
:1011C00054F582E43401F583E4F0A3F022900107A2
:1011D000120BDB900231E02275F008A42426F8E51A
:1011E0000825E028F8E6FE08E6FF22F583EEF0A3E6
:1011F000EFF022900232E0FEA3E0FF2290010A12FB
:101200000BDB90023122900231E0FF25E02489F5CA
:1012100082E4340222900231E025E024A1F582E448
:10122000340122EF25E025E02491F582E43401F534
:101230008322E0FF25E02485F582E4340222900237
:1012400032E0FFC394027480948022E0FF25E02402
:101250003CF582E4340122120937C39DFFE5F09C7E
:10126000FE22120937C39DFEE5F09C900232F0A3E6
:10127000CEF022ED25E024DEF582E4340122900256
:1012800032E0FCA3E0FD2225E024A5F582E4340150
:101290002225E02481F582E434012225E02485F52D
:1012A00082E4340122F583E475F0010208F6EFF0E0
:1012B000D3900278E09400900277E094002225E039
:1012C00024DAF582E4340122120937FDACF09001F2
:1012D0000A2225E02481F582E434022224F6F582F4
:1012E000E43401F58322EE8FF00209DBE0FEA3E097
:1012F000FFE4FCFD020A08900231E0FF25E024EC47
:10130000F582E4340122EC8DF00209DBEE9002322A
:10131000F0A3EFF02275F00AA42454F582E434011E
:101320002275F00AA42458F582E4340122900107C2
:10133000120BDB900231E0FF229002797403F0A3DC
:101340007420F022EB25E0247DF582E4340122E4D0
:10135000F5F00209DBC3E50894037480948022252C
:10136000E02440F582E434012275F002020BCF1232
:101370000937FFAEF022900231EFF0A37402F0A320
:1013800074BCF0E4A3F0A3F0D39001E3E0940090E8
:1013900001E2E0940040149001041219DFE0FF1212
:1013A0001925121AA8121921121AE6900277E07074
:1013B00002A3E0600B900232E4F0A37464F0800BAF
:1013C00090001AE0641170037420F0900231E0FB89
:1013D00012196BE06017900231E0FA121958120BE3
:1013E0009E00000000EA12199BEB021D991219548D
:1013F000C083C082120B86E8C0E0E9C0E0EAC0E02A
:10140000EBC0E09001041219DFE0121925121B4F06
:10141000E4FCFDD0E0FBD0E0FAD0E0F9D0E0F81237
:101420000A08D082D083120B92900231E0FF121A88
:10143000F5121A85EF121B0112193CFF900232E0DF
:10144000FCA3E0FDC3EF9DEE9C5003021D9F12190B
:1014500054C083C082120B7AECC0E0EDC0E0EEC055
:10146000E0EFC0E0900231E0121AF512193CFBEEF9
:10147000FAE4F9F8D0E0FFD0E0FED0E0FDD0E0FCE7
:10148000120AAED082D083120B921219DCE012192C
:10149000251209372450FFE435F0FEE4FCFD121953
:1014A00054120B86D3120B56403B900277E0700229
:1014B000A3E07031900231E0FB121ABCE07026907C
:1014C0000231E0FF12198F121A85EF12198F1219CB
:1014D0003CD39403EE94004023EB12195812198365
:1014E0001219A68017900231E0FB121958121983C5
:1014F0001219A6900231E0121ABCE4F0900231E019
:10150000FF12198F12194D4C6003021D8290010ABF
:10151000121921120937FFC3900235E09F9002345F
:10152000E095F0506B1219DC12190D121A37123DAA
:101530004BC3EF94E8EE648094835054900231E002
:10154000640190010A701F1219DFE0121925121BA5
:101550004F7C007D04120BED900234121975121AA3
:10156000D1E47B0580221219DFE0121925121B4FEE
:101570007C007D02120BEDECF8EDF9EEFAEFFB903A
:101580000234121ACCE47B03FAF9F8120AAE80088E
:10159000900234E0FEA3E0FF1219DCE012192512DC
:1015A0001AC6900231E0FB121958120B9E0000007F
:1015B00000EB12199B900231E0121B011219A622B6
:1015C000900232EFF0E0FF244EF582E43401F5831F
:1015D000E07003021E6FEF122AE5E0FEA3E04E70FA
:1015E000269001B6E0FEA3E0FF900232E0FD122A51
:1015F000E5EEF0A3EFF0122ACDFFED122AC1E5F0DF
:10160000F0A3EFF0021E93900232E0122AE5E0FE12
:10161000A3E0FF9001B6E0FCA3E0FD123CEA9001DC
:10162000D4120BDB900232E0FD122B41EE8FF01250
:1016300009DB74AA2D122B2FE070339001D4122AEB
:10164000D0C39406E5F094005010122ACDFFED129D
:101650002AC1E5F0F0A3EFF08014E4FFEF122B8431
:10166000500C74AA2F122B2F7401F00F80EE122A47
:10167000E0E0FCA3E09001B6122B9E400A74AC2F70
:10168000122B77E4F0802C122B717401F08024125D
:101690002AE0E4F0A3F0122AC0E4F0A3F074AA2F29
:1016A000122B2FE4F0122B0FE4F0A3F0122B02E424
:1016B000F0A3F0122B28E07003021FDB122AC0E017
:1016C000FEA3E0D39400EE94005003021FDB122B24
:1016D00098900232E0FD122AD4FFAEF0ED122AC13A
:1016E000E0FCA3E0FD123CEA900233EEF0A3EFF041
:1016F0009001D8EEF0A3EFF0122AA8122BB5400CFF
:10170000D3900234E0945A122B6A5013122AA81272
:101710002BBF5053900234E09496122B6A4048122B
:101720002B28E4F0EF122AE5E4F0A3F0122B98EF57
:10173000122AD4FF900232E0FD122AC1E0FAA3E09F
:10174000C39FEA95F0500CED122B58E4F0A374C837
:10175000F0800E900232E0122B587401F0A3742C2A
:10176000F0122B71E4F022122AA8122BB5404CD3B0
:10177000122B644046900232E0122B03E0FEA3E0FD
:10178000122B915036122B3774FF75F0F712096F38
:10179000122B02E475F0091208F6122B0F122B8C93
:1017A0005019122BAA400D122B1074FF75F0F7126E
:1017B00008F68007122B10E4F0A3F0122AA8122BCF
:1017C000BF5038122B644033122B37E475F00912E6
:1017D000096F122B0FE475F0091208F6122B021292
:1017E0002B8C5017122BAA400B122B0374FF75F091
:1017F000F70208F6122B03E4F0A3F022D39002784C
:10180000E09F900277E09E400AA3E09FF09002776D
:10181000E09EF090027C1236BC90027BE09C400C73
:10182000A3E09FF090027BE09EF08002D28AD390EA
:10183000027AE09F900279E09E400AA3E09FF09038
:101840000279E09EF01236CD50031236C7D39002D3
:1018500082E09F900281E09E400AA3E09FF0900208
:1018600081E09EF0D3900286E09F900285E09E404A
:101870000AA3E09FF0900285E09EF0D390028AE0F8
:101880009F900289E09E400AA3E09FF0900289E0C9
:101890009EF0D39001DFE09F9001DEE09E400AA31E
:1018A000E09FF09001DEE09EF0D390027EE09F90FA
:1018B000027DE09E400AA3E09FF090027DE09EF052
:1018C00090028E1236BC90028DE09C400AA3E09FED
:1018D000F090028DE09EF01236DB50031236C7D333
:1018E000900284E09F900283E09E400AA3E09FF074
:1018F000900283E09EF0D3900288E09F900287E000
:101900009E400AA3E09FF0900287E09EF0D39002F1
:101910008CE09F90028BE09E400AA3E09FF0900233
:101920008BE09EF0D3900280E09F90027FE09E408B
:101930000AA3E09FF090027FE09EF0D39001E1E0E7
:101940009F9001E0E09E400AA3E09FF09001E0E05C
:101950009EF01236E950031236C7D39001C1E09FC2
:101960009001C0E09E400AA3E09FF09001C0E09E7D
:10197000F0D39001C3E09F9001C2E09E400AA3E033
:101980009FF09001C2E09EF090018E12372F9001DF
:101990008DE09C400AA3E09FF090018DE09EF0D383
:1019A0009001E3E09F9001E2E09E400AA3E09FF0F7
:1019B0009001E2E09EF090019012372F90018FE0AD
:1019C0009C400AA3E09FF090018FE09EF01236F752
:1019D00050031236C712370550031236C712371399
:1019E00050031236C712372150031236C7D3900165
:1019F00039E09F900138E09E400AA3E09FF09001FB
:101A000038E09EF0221226EBD3900278E09400900A
:101A10000277E0940040030223C39001B8120B86C2
:101A200090011FE0FEA3E0FFE4FCFD120A08900114
:101A3000B8120B929001BCE475F0011208F6C39045
:101A400001BFE094649001BEE0940050030222AE16
:101A50009001B8120B7AECC0E0EDC0E0EEC0E0EF10
:101A6000C0E09001BCE0FEA3E0FBEEFAE4F9F8D0A0
:101A7000E0FFD0E0FED0E0FDD0E0FC120AAE900125
:101A8000B8120B929001B8120B7A9001B6EEF0A347
:101A9000EFF0A3120B9E00000000E49001BCF0A345
:101AA000F0A3F0A3F0900277E07002A3E0701F9023
:101AB0000231F0122B7F5016EF122B58E0FEA3E0FC
:101AC0004E7003121DA0900231E004F080E5E49016
:101AD0000231F0122B7F40030223C3744E2FF58294
:101AE000E43401F583E0FF6022900231E0FE122A27
:101AF000F6E0FCA3E04C701390011FE0FCA3E0FDB6
:101B0000EE122AF6ECF0A3EDF08024EF7021122BF8
:101B100098900231E0122AD4C39496E5F0940050D4
:101B20000E122AF1E4F0A3F0122B4BE4F0A3F01212
:101B30002AF1E0FCA3E04C70030223BA122B987543
:101B4000F002EF122AD7D39440E5F0941F5003021D
:101B500023BA900231E0122AF6E0FCA3E090011FC4
:101B6000122B9E4019EF122AF6E0FCA3E0C39BFD66
:101B7000EC9AFCEF122B1CECF0A3EDF0800B900222
:101B800031E0122B1CE4F0A3F0900231E0FF122BA5
:101B90001CE0FCA3E0D3940AEC9400403D122B4BD4
:101BA000E0FEA3E0C39428EE9423502E900231E08F
:101BB000FB249EF582E43402F583E075F012A4FF65
:101BC000AEF0EB122B1CE0FCA3E0FD1208599002D2
:101BD00031E0122B4CEEF0A3EFF0900231E004F074
:101BE0000222B322C0E0C0F0C083C082C0D0E8C0EF
:101BF000E0D2AFD3900278E09400900277E09400B6
:101C000040031236AED390027CE0940190027BE058
:101C1000940040051236AE8002D28AD390027AE058
:101C20009400900279E0940040031236AE1236CD53
:101C300050031236B5D3900282E09400900281E006
:101C4000940040031236AED3900286E094009002D6
:101C500085E0940040031236AED390028AE09400EF
:101C6000900289E0940040031236AED39001DFE089
:101C700094009001DEE0940040031236AED390024F
:101C80007EE0940090027DE0940040031236AED3D3
:101C900090028EE0940190028DE094004003123691
:101CA000AE1236DB50031236B5D3900284E09400B6
:101CB000900283E0940040031236AED3900288E095
:101CC0009400900287E0940040031236AED3900255
:101CD0008CE0940090028BE0940040031236AED367
:101CE000900280E0940090027FE09400400312365E
:101CF000AED39001E1E094009001E0E09400400355
:101D00001236AE1236E950031236B5D39001C1E057
:101D100094009001C0E0940040031236AED39001CD
:101D2000C3E094009001C2E0940040031236AED3A9
:101D300090018EE0940190018DE0940040031236F2
:101D4000AED39001E3E094009001E2E09400400300
:101D50001236AED3900190E0940190018FE0940090
:101D600040031236AE1236F750031236B51237055D
:101D700050031236B512371350031236B5123721FD
:101D800050031236B5D3900139E09400900138E049
:101D9000940040031236AED0E0F8D0D0D082D08389
:101DA000D0F0D0E0327A0079007DFF1226E37A018C
:101DB00079007DF61226E37B017A0279767D1A7C22
:101DC00000123D00902DE0E493900001F09000049B
:101DD0007411F0A37422F0A37433F0902DE2E49315
:101DE000900012F0902DE3E493900014F09000FB2B
:101DF0007401F090004A7411F09000F114F090001A
:101E000024F0A37420F07B017A00793E9001041243
:101E10000BE47A00794290010A120BE47A007946C9
:101E2000900107120BE47A00793290010D120BE455
:101E30007A00793A900110120BE47A007936900119
:101E400013120BE47A007960900121120BE47A00FE
:101E500079809001D4120BE47A00790A90014B1238
:101E60000BE47A00791B900148120BE47A00792A7E
:101E7000900116120BE47A007926900119120BE4F6
:101E80007A00792E90011C120BE4900116120BDBE4
:101E9000E475F0C81209BC900119120BDBE475F06F
:101EA000641209BC90011C120BDBE475F096120958
:101EB000BC7536007537C8752200752396900116DB
:101EC00012080375F0C81209DB9001191208037596
:101ED000F0641209DB90011C12080375F0961209D8
:101EE000DB7538007539C87524007525969000207B
:101EF0007410F09002777407F0A374D0F0E49002AD
:101F000076F0227B017C00123D0022758D20438DEE
:101F100020538D7FE4F5B275B6FF75B7FF75B2A299
:101F200043B20153A8FB538B7F758B10438B08E59D
:101F30008B20E7030080F8538B7F758B11438B0850
:101F4000E58B20E7030080F890029CE5B5F0A3E55F
:101F5000B4F0758B01E4F5B27F02FE121FDC123C77
:101F600080E4F58D123D344E7010123D2BFD900132
:101F70001FE5F0F0A3EDF00227D7123D2BFDC3EFD4
:101F80009DFFEE95F0FE123D4BD3EF940AEE648078
:101F900094804024123D2BFFC3900120E09F9001CC
:101FA0001FE095F05006E475F001800790011F7462
:101FB000FFF5F01208F6803F123D347C007D0312DD
:101FC0000BEDECC0E0EDC0E0EEC0E0EFC0E0123D94
:101FD0002BFFAEF0E4FCFDD0E0FBD0E0FAD0E0F95E
:101FE000D0E0F8120A08E47B04FAF9F8120AAE907D
:101FF000011FEEF0A3EFF090011FE0FFA3E09001BE
:10200000F4CFF0A3EFF0900120E025E0FF90011F56
:10201000E033FE7C007D0A12086B9001CCEEF0A349
:10202000EFF09001D0E07002A3E0700F9001CCE0DF
:10203000FFA3E09001D0CFF0A3EFF0123D347C007D
:102040007D10120BEDE47B64FAF9F8120AAE9001F0
:10205000CEEEF0A3EFF09001D2E07002A3E0700F9B
:102060009001CEE0FFA3E09001D2CFF0A3EFF022E9
:10207000900231EFF01219F912193CFFC39404EEEB
:102080009400502A900231E0121944FD121A03C044
:1020900083C082900231E0FFD082D083121B49ECD2
:1020A000F0A3EDF0EF1219F9121A850228F690024A
:1020B000367401F0900236E0FFC39404748094807B
:1020C000503A121A03C083C082900231E0FED082DF
:1020D000D083121B49E0FCA3E0FDEF25E025E024BE
:1020E0008DF582E43401F58375F002EE120BCFEC2E
:1020F000F0A3EDF0900236E004F080B8900231E0F9
:10210000FF121944FDEF25E0249DF582E43401F52A
:1021100083ECF0A3EDF0900232120B9E0000000061
:10212000E4900236F01219F512193CFF900236E0E5
:10213000FDD3EF9DEE9400402D900232120B86905D
:102140000236E0121A04C083C082900231E0D082CD
:10215000D083121B49121ACC900232120B929002B9
:1021600036E004F080BF900232120B7AECC0E0ED52
:10217000C0E0EEC0E0EFC0E01219F512193CFBEE32
:10218000FAE4F9F8D0E0FFD0E0FED0E0FDD0E0FCCA
:10219000120AAE900232120B92900232020B7A9027
:1021A000023BEFF0902E22E0FF90023FE4F0A3EF1D
:1021B000F0758A50902E227401F090023BE01238A4
:1021C0009A7404F0A3E4F090023CF090023CE0FF2B
:1021D000C3940D748094804003022A9BEFF87E0222
:1021E000E4088006CEA2E713CE13D8F8FF90023D94
:1021F000EEF0A3EFF04E700790023DF0A304F090D4
:102200002E207401F0902E20E030E2F990023BE0A5
:10221000FF902E0012389DE0FCA3E0D394FEEC94D6
:102220000740401238C0E0FEA3E0FF90023DE0FC12
:10223000A3E0FDEF2DFFEE3CFEC3EF94FFEE94070D
:1022400090023BE075F002902E10500B120BCFEC79
:102250008DF01208F68054120BCF7407F0A374FFB0
:10226000F0804890023BE0FF12389AE0FCA3E0FDCA
:1022700090023DE0FAA3E0FBD3ED9BEC9A402112E3
:1022800038C0C083C082C3A3E09BFF0582D5820211
:1022900015831582E09AD082D083F0A3EFF0800BF3
:1022A00090023BE012389AE4F0A3F0902E20E4F084
:1022B000F58D90023CE004F00229AB90023FA3E0D0
:1022C000902E22F0758A1022900107120BDB9002EB
:1022D00032E0FF75F002A4F58285F083120937FD24
:1022E000EF25E024B2F582E43401F5832290010762
:1022F000120BDBED75F002A4F58285F0830209373D
:10230000900232E0FF25E024AEF582E43401F5834B
:1023100022900231E0FF25E024E4F582E43401F567
:102320008322EF25E024C8F582E43401F58322EF0F
:1023300025E024C4F582E43401F5832225E024E875
:10234000F582E43401F58322900232E0FF24AAF5FD
:1023500082E43401F5832290010A120BDB900232F1
:10236000E075F002A4F58285F08322EF25E024ECED
:10237000F582E43401F5832225E024C0F582E434BB
:1023800001F58322900234E09414900233E094002B
:1023900022900232E024ACF582E43401F5832290ED
:1023A0000231E0FFC394027480948022E0FEA3E037
:1023B000FFC39430EE947522900107020BDBFDE021
:1023C000FAA3E0FBD3ED9BEC9A22EF9409EE940084
:1023D000900232E022E0FEA3E0D39DEE95F022E0F1
:1023E000FEA3E0C39DEE95F022900231121A8E40BA
:1023F00003022CE7300042900231E0121A54121905
:102400003C4E9002316019E0FF25E02436F8762733
:10241000087610EF25E02422F8761F0876408045E4
:10242000E0FF25E02436F87613087688EF25E024CF
:1024300022F87611087694802C121AD712194D249E
:10244000C8FDE43CF8EF25E02436C8F608EDF612A6
:102450001AD712194D2496FDE43CF8EF25E024220A
:10246000C8F608EDF6121B0D121925120937FDEFFB
:1024700025E024361219C4C3ED9FE5F09E50249048
:102480000231E012196BE06031121B0D1219251296
:102490000937FDEF25E024221219C4C3ED9FE5F0B2
:1024A0009E4017900231121A1212194D4C703A7454
:1024B0004E2F12196D7401F0802F9000F1E064200E
:1024C0009002317009E0121A141219A6800CE01261
:1024D0001A14F583E4F0A374C8F09002311219695C
:1024E000E4F0EF121AB21219A6900231E012196B41
:1024F000E06003121B1990014FE0C454F0FF9001FB
:102500004EE04F90004BF022900231EFF0E4900249
:1025100033F0900231E0FF900233E0C39F50761217
:102520000C1AE4900232F0121A1E5060123B5D90B9
:102530000232E0FD121A7B1219CBED121A7BF583E1
:10254000E0F8A3E0FFED75F008A4242CC8F608EF2E
:10255000F6ED75F008A4FF2426F9E4FAFBC0E0C00C
:10256000E0E9C0E074282FF9E4900237120BE49000
:10257000023AE4F0A37406F0D0E0F9D0E0FAD0E03B
:10258000FB1239A8900232E004F0809B900233E005
:1025900004F0022CF2E4900232F0121A1E5056128D
:1025A0002E2F900232E0FD25E02400F582E4340174
:1025B0001219CBED121B3F12193CFFED121A7112CA
:1025C000194DFD123CEA7C007D0512086B90023229
:1025D000121A2BF583ECF0A3EDF0EF121A71121919
:1025E0003CFF900232E0121B3F1219CB900232E006
:1025F00004F0022D7A2204001E00190100190019AE
:102600000300AB2274AA7583F5758255A5745575C0
:1026100083FA7582AAA574A57583F5758255A522DE
:1026200002030AB00BB60CFF090208FF0D770E0477
:102630001307141010801500160001929207181845
:102640000F04040401011119171206080301029076
:102650000234EFF0E4F50CF50BF50AF509F50CF58D
:102660000BF50AF509F508121B355025900234E0E8
:102670001219B8E4FCFDE50C2FFFE50B3EFEED352D
:102680000AFDEC35098F0C8E0B8D0AF509050880C3
:10269000D6E47B03FAF9F8AF0CAE0BAD0AAC091225
:1026A0000AAE900234E0121A671219CBE4750CA836
:1026B000750B61F50AF509F508121B35507190028A
:1026C00034E0FD1219B8ED121A6712194DFD123CD3
:1026D000EAD3EF940AEE9400900234E0FF4008122F
:1026E0001A6712194D801175F008A42426F8E50820
:1026F00025E028F8E6FC08E6FDEF25E02471F582E8
:10270000E4340112193CFFC3ED9FFFEC9EFE3395AC
:10271000E0FDFCE50C2FFFE50B3EFEE50A3DFDE587
:10272000093C8F0C8E0B8D0AF5090508022E99E4E1
:102730007F607EEAFDFCAB0CAA0BA90AA809D312A4
:102740000B56400BE4750C60750BEAF50AF509AE03
:102750000BAF0C2212373A123CB77A0179A1123032
:10276000127A0179917D101230267A017981123026
:10277000127A01797D12301C7A01798512301C7A27
:1027800001794E7D021230267F03122CE8E4FFEF20
:10279000121A235049121943FD12191E121AE61279
:1027A0001943FD90010A121921121AE6900107122D
:1027B0001921121B2F90010D121921746175F0A8B7
:1027C0001209DB900113121921746175F0A8120926
:1027D000DB900110121921121B2F0F022F6F7B01AA
:1027E0007A0179AA7D2A7C00123D00E490027DF0F6
:1027F000A3F0A3F0A3F07B017A0179507D14FC12C1
:102800003D00E4900007F090004A7411F0A3F0122C
:102810001B1990028FE0700FC3900278E094F4903F
:102820000277E09401500A9002777401F0A374F4E7
:10283000F0227B017D047C00123D00227B017D049F
:102840007C00123D00227B017C00123D00229002A0
:1028500034E025E025E0243AF582E43402F58322D1
:10286000ED25E02479F582E43401F583E0FEA3E070
:1028700022F583ECF0EDA3F0900234E0FF25E02296
:1028800025E02479F582E43401F583EEF0A3EFF03E
:10289000222436F582E43402F583E0FCA3E02290A2
:1028A0000234E0FFC39402748094802225E025E086
:1028B000242CF582E43401F58322900234E0FD25D6
:1028C000E02225E02475F582E434012225E024810C
:1028D000F582E4340122EF25E02436F582E4340267
:1028E00022EF25E024F0F582E4340122F583E4931D
:1028F0002420F582E4342EF5832225E02434F58269
:10290000E4340122ED25E02471F582E4340122EF64
:102910009008119390080E9322900234E004F02264
:10292000F582E43402F583E0FF22C0E0C083C08278
:10293000C0D075D018D2AFE5DB30E422D207C20692
:10294000E5DB30E114123D16E0F5DFEF6407706956
:10295000D28A900007F00231BCC2050231BFE5DB2C
:1029600030E52C9000F0E064AA7017758A10F5DA53
:10297000C2AFF5B2F5A8F5A9F58B758E01758DC0BE
:1029800080FED204300604C2068054C2078050C2C2
:1029900006E5DB30E125E5DB30E044123D16E0F5ED
:1029A000DFEF24F9600C24FA60042402700BD208D3
:1029B0008007D28A900007E4F0802120050A780D74
:1029C000A6DFD205D2068017123D16E5DFF0EF64D0
:1029D00024700990027904F0A374F4F0780D067560
:1029E000DBFFD0D0D082D083D0E032E4FFFD900274
:1029F0007BE07004A3E064017011900007E06004C4
:102A0000D28AE4F0E490027BF0A3F090014EE06003
:102A10000E900024E064106006EF4420FF8004EF75
:102A20004410FF90014FE0600E900024E0641060BD
:102A300006EF4402FF8004EF4401FF90004AEFF0EC
:102A40009000FFE0FC6F605B90004AE0FFEC6FFEDF
:102A50009000FFEFF0208A1BD28A90027BE4F0A363
:102A60007403F090027CE024FFFB90027BE034FFD3
:102A70004B70F0900007E0700790004AE05E801312
:102A8000EEF4FF9000FFE05FFDEEFF90004AE05F94
:102A9000FFED4F900007F090027B7403F0A374E801
:102AA000F0C28A22900234E0C454F0245CF582E43F
:102AB0003402F58322EBC454F0245AF582E4340244
:102AC000F583E4F0A3F0900234E0FFC454F0245EF8
:102AD000F582E43402F583E4F0A3F0EFC454F0246B
:102AE00063F582E43402F58322900234E0FBC4549F
:102AF000F02456F582E43402F58322E0FDA3E09051
:102B00000235CDF0A3EDF0EFC454F02462F582E479
:102B10003402F58322900234E0C454F02460F5823C
:102B2000E43402F58322C454F02464F582E43402D0
:102B3000F58322900235E0FEA3E0FF22C454F02486
:102B40005AF582E43402F58322900237020B7A9020
:102B50000237020B869001647407F0A304F0A314FB
:102B6000F0A304F0123BD27B017A0179717D047CE1
:102B700000123D00E4900230F09002301238ED5027
:102B800076123C5C900230E090081193FF12389A64
:102B9000E0FCA3E0C39405EC9400400F1238C0E0C1
:102BA000FEA3E0D394F0EE94074017900230E0FFCC
:102BB00025E02464F582E43401F583E4F0A3F01207
:102BC0003C5C902E23E4F09002301238941238A32B
:102BD0002FFFEC3EFE90014B120BDB900230E075B4
:102BE000F002A4F58285F083EE8FF01209DB9002EB
:102BF00030E004F002335990001D7410F02275F09B
:102C00000E120BCFE0FEA3E0FFE4FCFD90024512A4
:102C10000B86120A23900242E075F01CA42275F084
:102C20000E020BCF75F01CA42400F582E43402F5EB
:102C3000832224FCF582E43401F5832224F8F58212
:102C4000E43401F583222404F582E43402F583227E
:102C5000120B9290024E020B7A900245020B7AED13
:102C600075F005A424D6F582E4342DF583E493228F
:102C7000EC75F00E020BCF75F01CA42401F582E474
:102C80003402F583222403F582E43402F583229092
:102C9000024E020B92200803023505300003023574
:102CA00005C208E4900231F09002311238ED506B09
:102CB000E0FE123896E0FCA3E0FDEE1238D5ECF011
:102CC000A3EDF0123C5C9002311238941238A32F1D
:102CD000FFEC3EFE900231E0FD1238E1EEF0A3EF92
:102CE000F0ED1238E1E0FEA3E0FF90014B120BDBA8
:102CF00075F002EDA4F58285F083EE8FF01209DB0A
:102D0000ED1238D5E0FEA3E0FFED123896EEF0A309
:102D1000EFF0900231E004F00234889002797403FD
:102D2000F0A37420F022787FE4F6D8FD7581390293
:102D300035500200000237B6E493A3F8E493A340B1
:102D400003F68001F208DFF48029E493A3F8540726
:102D5000240CC8C333C4540F4420C8834004F45621
:102D6000800146F6DFE4800B010204081020408059
:102D7000903B9AE47E019360BCA3FF543F30E50989
:102D8000541FFEE493A360010ECF54C025E060A859
:102D900040B8E493A3FAE493A3F8E493A3C8C582EC
:102DA000C8CAC583CAF0A3C8C582C8CAC583CADF5A
:102DB000E9DEE780BE208A03023621D3900278E064
:102DC00094E8900277E09403507790018DE07002D0
:102DD000A3E0706D90018FE07002A3E07063F5B224
:102DE000758D20438D20758D8043A808D2AFF58B5B
:102DF000900138E0FEA3E0FF4E6005758E50800321
:102E0000758EFE20042F20072CE5DB5404702675F8
:102E10008A84200720E5DB5404701AF58675870341
:102E2000000000758601EF4E60047F5080027FFE37
:102E30007E00121FDC758B01758A1053A8F7123CB7
:102E40008022900020E0642070037421F0900148FB
:102E5000120BDB12090C641045F07003123B1A9040
:102E60000001E064AA70031238F71239F92009084A
:102E700090001AE06410700D90001A7411F0C209ED
:102E8000E4900276F09000FBE06006E4F0900276B9
:102E9000F090018DE07004A3E06401600C90018F5C
:102EA000E07004A3E064017015E490018DF0A3F0DC
:102EB000A3F0A3F09001E2F0A3F0900276F03004CA
:102EC0000CC2049002797401F0A374F4F02274FF30
:102ED000F5F00208F6E475F0010208F6EF2401FDB2
:102EE000E43EFCD3E09D22EE8FF00208F6C3900191
:102EF00059E094BC900158E0940222C3900163E031
:102F000094BC900162E0940222C39001BFE09464FB
:102F10009001BEE0940022C3900265E094B8900254
:102F200064E0940B22C390025FE094F490025EE0B0
:102F3000940122C3900275E094B8900274E0940B5F
:102F400022C390026FE094F490026EE0940122EFAD
:102F50002401FDE43EFCD3E09D227B017A0179F857
:102F60007D387C00123D00E4FDEDC3940274809432
:102F7000805062E4900230F0900230E0FFC394028F
:102F800074809480504B12343FFEED75F01CA412F7
:102F90003465EF123451EEF012343F04F87E0074C1
:102FA00001088005C333CE33CED8F9FFED75F01C90
:102FB000A4123426C083C082900230E0D082D08335
:102FC0001233FEEEF0A3EFF0900230E004F002378F
:102FD000580D0237492253A87F123C9C12258512B6
:102FE0003C0812081643A880E4F58D1236229002A0
:102FF00076E014601614601E24FE603E240470E81F
:103000001233359002767401F080DD122F34900275
:10301000767402F080D2123952900020E0FF6420D2
:103020006008EF64216003123595900025E064107C
:1030300070B69002767404F080AE123A8E9000253D
:10304000E0641060A39002767401F0809BE4FEEED1
:10305000C3940774809480502FEE75F003A4241B52
:10306000F582E4342EF583E5822FF582E43583F58D
:1030700083E493FDEE75F003A4241AF582E4342E64
:103080001230CCEDF00E80C7EFFD7C007019EF25FB
:10309000E02464F582E43401F583E0FAA3E04A70A9
:1030A00006902E217412F0ED64014C7006902E21D2
:1030B0007412F022E0FB90081193902E1075F0022C
:1030C000020BCFE0FEA3E0FF7C007D0A120859EB63
:1030D00025E02464F582E43401F583E0FCA3E022DA
:1030E00075F002EF902E10020BCFEF25E0248DF546
:1030F00082E434012225E02436F582E43402F583AB
:103100002225E02432F582E43402F58322E0FFC375
:10311000940274809480229002307408F0A3E4F04A
:10312000A3743FF0A374DFF0E4FDFCF9123D24002A
:10313000900230E0FEA3E02DF582EE3CF583E493AF
:10314000FF69F90DBD00010CBC37E5BDDFE290025F
:1031500032E0FEA3E0F5828E83E493FFE96F70080E
:103160009000017403F08005E4900001F0123D240A
:1031700000227F01122CE81221E5E4900230F09049
:103180000230121A21503B123A44900230E0FF12F2
:103190002850EEFCEFFD900104120BDB900230E0B2
:1031A000FF121925121AE61212E0900230E0FF1207
:1031B0002BC9900230E0FF121B56900230E004F061
:1031C00080BD1231CB02347590023C120BE49002A8
:1031D00037120BDB90023F120BE490023AE07002D0
:1031E000A3E0603490023F120BDB12082EFF900226
:1031F0003C120BDBEF12084790023DE475F0011220
:1032000008F6900240E475F0011208F690023A7454
:10321000FFF5F01208F680C222900013E0FF900242
:1032200090E06F600CEFF090028D7402F0A3745880
:10323000F090028DE07004A3E0640170269002908B
:10324000E0FF7E0064107002D200EF64204E700236
:10325000C200900025E064106002D209E490028D63
:10326000F0A3F022EF25E02471F582E43401123856
:10327000B9243CFDEC34F6FCEF25E02481F582E432
:103280003401F583E0FAA3E0C39DEA9C501612389E
:10329000CA1238B94C70161238CAF5837401F0A3FB
:1032A00074F4F0221238CAF583E4F0A3F0229000FF
:1032B00025E06410703FF5B2758D20438D20538D4D
:1032C0007F53A8F7F58BE5DB54047013200710F546
:1032D0008AF586758703000000758601758A10756A
:1032E0008B0190028F7401F09002797403F0A37443
:1032F00020F0123C8022C2D5E830E70FB2D5E4C3FB
:103300009BFBE49AFAE499F9E498F8EC30E717B2F9
:10331000D5123B0C120AAEE4C39BFBE49AFAE49983
:10332000F9E498F88003120AAE30D50DE4C39FFF8C
:10333000E49EFEE49DFDE49CFC22E4900230F0A3B8
:10334000F0123D2400122DE475EA81E4F5F6F5F45F
:1033500075F308F5F275EB0700E5EC30E7FBAFF32A
:10336000EFFEADF2EDFF900148120BDBEE8FF01295
:1033700009BCE4F5EC75EB30123D240022EFFB12A2
:103380001A7112193CFF121B241219CBEB121A7B73
:1033900012194DFDECC0E0EDC0E0121B2412193CE7
:1033A000FFE4FCFD900245120B92EB900249F0D035
:1033B000E0FDD0E0FC7F01020FA4C10742029E05A0
:1033C00005C1084102920041029100C103C101C13F
:1033D00000C10241029000C105010D00C104C106F7
:1033E0004201F600004100FF11C1094302990102A8
:1033F0009C00E4FFEFC3940D748094805021EF256E
:10340000E02401F582E4342EF583E493FEEF25E019
:103410002400F582E4342E1230CCEEF00F80D590EB
:103420002F56E0902E2BF022E4F5DA75DA4043DADD
:103430002030880875D74075D640800675D742750C
:10344000D6425392FE75DA5843A80275B80275F851
:103450000222900234EFF0E075F010A42456F974C3
:103460000235F0FA7B017D107C00123D00900234A1
:10347000E0123306740BF0A374B8F02290023AEF16
:10348000F0123CD190023AE0FF12382D90023AE05F
:1034900090081193FF12297F90023AE0FF023D57F6
:1034A000E5B254016006E5A85410700F75B292752C
:1034B000B6F9E4F5B743B20143A81022758A105358
:1034C0008AEF758601758F05E4F5AB75AC0F7591C4
:1034D0003E759201D28A227B017A0179757D047C46
:1034E00000123D007B017A0179797D047C00023D68
:1034F00000EFF87401088002C333D8FC42AB1230ED
:10350000EFF4529152935391DF22D3EF9DEE9C4002
:1035100007EF9DFFEE9CFE22C3ED9FFFEC9EFE2277
:10352000ED4C6011E41208470429F9E43AFAED1D64
:1035300070EE1C80EB22780DE6FF2400F582E43467
:1035400000F58322758A10538AEF22900299120B9C
:10355000DB02090C90011FE0FEA3E0FF22009600B1
:10356000960701F4009600960701F4EE30E707C3D2
:10357000E49FFFE49EFE221230EF42914288439185
:103580002022D2AF32000000000000000000000046
:10359000000000000000000000000000000000002B
:1035A000000000000000000000000000000000001B
:1035B000000000000000000000000000000000000B
:1035C00000000000000000000000000000000000FB
:1037F00000000000000000000000000000000026A3
:1038000000000000000000000000000000000000B8
:1038100000000000000000000000000000000000A8
:00000001FF
