:1007E00000240000001000009480000000000000C1
:1007F00000000000000000000000000000000000F9
:10080000022B9A9001E57401F0222202277B023428
:10081000E30000020816D2AF32000002081ED2AF79
:10082000320000021BF2D2AF320000020826E49030
:1008300001C5F0A3F012214F90018912100312306C
:100840009EE4FCFD120E8590018912100F90018D1F
:10085000E475F001120DEDC3900190E094649001F5
:100860008FE094005003020AD4900189120FF7EC34
:10087000C0E0EDC0E0EEC0E0EFC0E090018DE0FE32
:10088000A3E0FBEEFAE4F9F8D0E0FFD0E0FED0E020
:10089000FDD0E0FC120F2B90018912100F900189FE
:1008A000120FF7900187EEF0A3EFF0A312101B00D8
:1008B00000000090018D1230D39001E6E07002A399
:1008C000E06003020AD4900191E07002A3E06003AB
:1008D000020AD490013CE0700302096E900183E0AB
:1008E0007002A3E0701D900187E0FFA3E0900183F8
:1008F0001230821230DC9001937403F0A374E8F09C
:1009000002097E900187E0FEA3E0FFC3900184E02E
:100910009FFF900183E09EFE1235489001AD1210BA
:1009200058EE8FF0120E66900181E0701D9001ADBF
:1009300012308AC39406E5F09400500812308712F2
:1009400030DC80069001817401F0900187E0FEA305
:10095000E0FFD3900184E09F900183E09E4007E494
:10096000900182F080189001827401F08010900153
:10097000831230D3900181F09001951230D4900110
:1009800081E07003020AD4D3900186E094009001C4
:1009900085E094005003020AD4123087FF9001854D
:1009A000E0FCA3E0FDC3EF9DFFE5F09CFE1235489F
:1009B0009001C7EEF0A3EFF0A3E4F074C812308505
:1009C000D39494E5F09411400A9001C97403F0A304
:1009D0007420F09001C7E0FFA3E09001B1123082D3
:1009E000D3123091400CD39001C8E094641230BD12
:1009F000501312308712309050369001C8E094C8DE
:100A00001230BD402BE4900181F0900183F0123050
:100A1000851230909001915008E4F0A374C8F080E2
:100A2000077401F0A3742CF0E4900182F0020AD460
:100A3000123087FFD3123092404AD31230B740446D
:100A400090010812105874FF75F0F9120E2E9001E3
:100A500097E475F007120DEDC3900196E094E890CD
:100A60000195E09403501DA3E09407900195E09454
:100A700000400A74FF75F0F9120DED8007E4900153
:100A800095F0A3F012308712309050481230B740E2
:100A900043900108121058E475F007120E2E9001D1
:100AA00095E475F007120DEDC3900198E09458900D
:100AB0000197E09402501DA3E09407900197E09401
:100AC00000400A74FF75F0F9120DED8007E4900103
:100AD00097F0A3F090013CE0601B9001BBE0700236
:100AE000A3E0701190011DE0FFA3E09001BBCFF0E7
:100AF000A3EFF0801F90013CE07019123087C3947F
:100B000096E5F09400500DE49001BBF0A3F0900145
:100B1000BFF0A3F09001BBE07002A3E07003020BF2
:100B2000DC12309EC39001BCE09FFF9001BBE09EB1
:100B3000FE1235489001C5EEF0A3EFF012309ED3BF
:100B40009001BCE09F9001BBE09E400D9001C5E08C
:100B5000FFA3E09001BDCF801A9001C5E0FEA3E0A5
:100B6000FFD394C8EE9400400EEE13FEEF13FF90F7
:100B700001BDEEF0A3EFF0D39001BEE0940A900126
:100B8000BDE094004056123087D39488E5F094136A
:100B900040239001C0E094DC9001BFE09405503CFC
:100BA0009001BEE025E0FE9001BDE0339001BFF072
:100BB000A3CEF08027123087D394E8E5F094034069
:100BC0001B9001C0E094F49001BFE09401500D909F
:100BD00001BDE0FFA3E0A3CFF0A3EFF09001FAE0A6
:100BE00064016003020CAE90013CE06003020C9EC5
:100BF00012309EC39001A2E09F9001A1E09E50049C
:100C0000EE1230AF9001A7E07002A3E070671230DF
:100C10009ED39001A4E09F9001A3E09E401290011A
:100C2000A4E09FFF9001A3E09E9001A5F0A3EFF048
:100C3000D39001A6E094049001A5E094004008122E
:100C400030C47464F08015D39001A6E0940690013E
:100C5000A5E0940040061230C474C8F09001A77457
:100C600003F0A374E8F090011DE0FFA3E09001A35E
:100C7000CFF0A3EFF09001A9E07002A3E0700F1293
:100C800030A7E49001ABF0A3F09001C1801D90016A
:100C9000ABE0FFA3E09001C1CFF0A3EFF022123050
:100CA000A7E49001C1F0A3F09001ABF0A3F022E71C
:100CB00009F608DFFA8046E709F208DFFA803E8885
:100CC000828C83E709F0A3DFFA8032E309F608DFBC
:100CD000FA8078E309F208DFFA807088828C83E377
:100CE00009F0A3DFFA806489828A83E0A3F608DF33
:100CF000FA805889828A83E0A3F208DFFA804C8068
:100D0000D280FA80C680D4806980F28033801080DF
:100D1000A680EA809A80A880DA80E280CA8033893F
:100D2000828A83ECFAE493A3C8C582C8CCC583CC7D
:100D3000F0A3C8C582C8CCC583CCDFE9DEE7800D4F
:100D400089828A83E493A3F608DFF9ECFAA9F0ED2F
:100D5000FB2289828A83ECFAE0A3C8C582C8CCC58D
:100D600083CCF0A3C8C582C8CCC583CCDFEADEE85B
:100D700080DB89828A83E493A3F208DFF980CC8840
:100D8000F0EF60010E4E60C388F0ED2402B4040061
:100D900050B9F582EB2402B4040050AF23234582FE
:100DA00023900CFF73EF8DF0A4A8F0CF8CF0A42853
:100DB000CE8DF0A42EFE22C2D5EC30E709B2D5E4E8
:100DC000C39DFDE49CFCEE30E715B2D5E4C39FFF64
:100DD000E49EFE1210C3C3E49DFDE49CFC8003125C
:100DE00010C330D507C3E49FFFE49EFE22C5F0F890
:100DF000A3E028F0C5F0F8E582158270021583E0C3
:100E000038F022BB010A89828A83E0F5F0A3E02250
:100E1000500687F009E71922BBFE07E3F5F009E366
:100E2000192289828A83E493F5F074019322BB012D
:100E30000789828A83020DED500B09C5F027F7C59B
:100E4000F01937F722BBFE0D09F8E325F0F3C5F0E2
:100E500019E338F322F889828A8374019325F0C557
:100E6000F0F8E4933822BB010A89828A83F0E5F026
:100E7000A3F0225006F709A7F01922BBFE06F3E5FE
:100E8000F009F31922EF2BFFEE3AFEED39FDEC38B5
:100E9000FC22C3EF9BFFEE9AFEED99FDEC98FC223D
:100EA000E88FF0A4CC8BF0A42CFCE98EF0A42CFCF1
:100EB0008AF0EDA42CFCEA8EF0A4CDA8F08BF0A46F
:100EC0002DCC3825F0FDE98FF0A42CCD35F0FCEBCE
:100ED0008EF0A4FEA9F0EB8FF0A4CFC5F02ECD3993
:100EE000FEE43CFCEAA42DCE35F0FDE43CFC22758A
:100EF000F008758200EF2FFFEE33FECD33CDCC33FB
:100F0000CCC58233C5829BED9AEC99E58298400C62
:100F1000F582EE9BFEED9AFDEC99FC0FD5F0D6E440
:100F2000CEFBE4CDFAE4CCF9A88222B800C1B90026
:100F300059BA002DEC8BF084CFCECDFCE5F0CBF987
:100F40007818EF2FFFEE33FEED33FDEC33FCEB337F
:100F5000FB10D703994004EB99FB0FD8E5E4F9FAAD
:100F6000227818EF2FFFEE33FEED33FDEC33FCC992
:100F700033C910D7059BE99A4007EC9BFCE99AF925
:100F80000FD8E0E4C9FAE4CCFB2275F010EF2FFF94
:100F9000EE33FEED33FDCC33CCC833C810D7079BFE
:100FA000EC9AE899400AED9BFDEC9AFCE899F80F61
:100FB000D5F0DAE4CDFBE4CCFAE4C8F922EB9FF5F6
:100FC000F0EA9E42F0E99D42F0EC6480C8648098AB
:100FD00045F022EB9FF5F0EA9E42F0E99D42F0E8F1
:100FE0009C45F022E8600FECC313FCED13FDEE13FB
:100FF000FEEF13FFD8F122E0FCA3E0FDA3E0FEA387
:10100000E0FF22E0F8A3E0F9A3E0FAA3E0FB22EC82
:10101000F0A3EDF0A3EEF0A3EFF022A8828583F019
:10102000D083D082121032121032121032121032CB
:10103000E473E493A3C583C5F0C583C8C582C8F033
:10104000A3C583C5F0C583C8C582C822A42582F57F
:1010500082E5F03583F58322E0FBA3E0FAA3E0F913
:1010600022EBF0A3EAF0A3E9F022EC8EF0A4CCC5C9
:10107000F0CCCDF8EFA4CEC5F02DFDE43CFCE8A407
:101080002EC8C5F03DFDE43CFCEFA4FFE5F028FED2
:10109000E43DFDE43CFC22EF4E6012EF60010EEDFA
:1010A000BB010B89828A83F0A3DFFCDEFA2289F080
:1010B0005007F709DFFCA9F022BBFEFCF309DFFCB7
:1010C000A9F022BC000BBE0029EF8DF084FFADF02B
:1010D00022E4CCF875F008EF2FFFEE33FEEC33FC82
:1010E000EE9DEC984005FCEE9DFE0FD5F0E9E4CEB8
:1010F000FD22EDF8F5F0EE8420D21CFEADF075F087
:1011000008EF2FFFED33FD4007985006D5F0F2228F
:10111000C398FD0FD5F0EA22122B6D60030211A1D6
:101120007F01122F3D122B74902E20E030E2F990B7
:1011300001FAE025E0246BF582E43435122B30907F
:1011400001CA122B5F7F0112352B90015CE0FEA3D8
:10115000E0FF4E70089001CA122B87801E7C007D34
:1011600003120DA59001CBE02FFF9001CAE03EFED7
:101170007802EFCEC313CE13D8F9FFEE122B284E10
:101180007003122B20122B20900158E07002A3E074
:10119000700F90015CE0FFA3E0900158CFF0A3EF47
:1011A000F09001CC12101B00002710E4FF122F3D1D
:1011B000E49001C7F09001C7E0FF7E00C394037480
:1011C0008094804003021324EF2401FFEE33FE12CB
:1011D0002B42FDD3EF9D7480F86E98400302131BE1
:1011E000E4FF122B74902E20E030E2F99001FAE037
:1011F00025E0246AF582E43435122B309001C812C0
:101200002B5FFF12352B122B6D7057900158E0FEAB
:10121000A3E0FFE4C0E0C0E0EEC0E0EFC0E090017A
:101220005CE0FEA3E0FBEEFAE4F9F8D0E0FFD0E0EA
:10123000FED0E0FDD0E0FC120E92E47B08FA120E24
:10124000A0E47B0AFAF9F81232D89001C8EE8FF0C8
:10125000120DED9001C8E0FFA3E090015ECFF0A376
:10126000EFF0900199E0FEA3E0FF9001C9E02FFFAD
:101270009001C8E03EFE90019BE0FCA3E0FDC3EFBF
:101280009DFFEE9CFE9001C8F0A3EFF09001B9EE37
:10129000F0A3EFF090015AE0FEA3E0FF4E7008903B
:1012A00001B9122B87801E7C007D03120DA59001D1
:1012B000BAE02FFF9001B9E03EFE7802EFCEC313F3
:1012C000CE13D8F9FF90015AEEF0FAA3EFF0FB121B
:1012D0002B18FFE4FCFD9001D112100FEBFFEAFE8A
:1012E000E4FCFD9001D512100FE4FF121D65900182
:1012F00062EEF0A3EFF0122B6D9001CC700B122B6D
:10130000152400FFEE34F08009122B152400FFEEA7
:1013100034E8FE3395E0FDFC122B919001C7E00408
:10132000F00211B5902E23E4F09001CC121003E8E6
:10133000C0E0E9C0E0EAC0E0EBC0E0122B42FFFBF6
:10134000E4FAF9F8122B811232D8D0E0FBD0E0FA9F
:10135000D0E0F9D0E0F8122B91E47F507EC3FDFC81
:101360009001CC121003D3120FBD400A9001CC1291
:10137000101B0000C350122B81EC33500A9001CC9B
:1013800012101B00000000900168E0FAA3E0FB4A85
:101390007005122B8180227E007F02EBFDEAFC1299
:1013A000106AECF8EDF9EEFAEFFB122B81120E85C4
:1013B000E47B03FAF9F8120F2B900168EEF0A3EF2B
:1013C000F0900156E07002A3E0700F900168E0FF1A
:1013D000A3E0900156CFF0A3EFF0900126122B1559
:1013E000FFE4FCFD120E8590012612100F90012AD9
:1013F000E475F001120DED90012AE0FEA3E0FFD3A9
:10140000940AEE94004029EFFBEEFAE4F9F890011B
:1014100026120FF7120F2B900124EEF0A3EFF0E449
:1014200090012AF0A3F090012612101B000000008A
:1014300090012CE07002A3E0703A900124E0FEA33A
:10144000E0FFC3900163E09FFF900162E09EFE1207
:101450003548900122EEF0A3EFF0D39406EE94000D
:10146000401290012C7403F0A374E8F0A3E475F02B
:1014700001120DED900168E0FEA3E0FF2212293772
:10148000400302176E90010812290AFDE5F0FC12D4
:101490002907FFAEF0D39DEE9C402E1229A0D3EF7A
:1014A0009430EE9475400C9001C57475F0A37430BF
:1014B000F08010120E03C39DFEE5F09C9001C5F074
:1014C000A3CEF0E49001B38060120E03FFAEF0C330
:1014D000ED9FFBEC9EFAD3EB9410EA9427400C901E
:1014E00001C57427F0A37410F08009C3ED9FFFECD1
:1014F0009E12295D9001C5E0FFA3E09001B3CFF0FB
:10150000A3EFF0300718D3E0942C9001B3E09401DE
:1015100040139001B57427F0A37410F08007E49095
:1015200001B5F0A3F0E49001C5F0A3F090013CE018
:10153000604A122910D39400EE648094804014D342
:10154000EF9509EE9508400B9001ECE4F0A374646C
:10155000F0801BD39001EDE094009001ECE094004A
:10156000400C90010512290AFFE5F012295DD20412
:101570009001F2740FF0A374A0F0800F9001F0744A
:1015800003F0A374E8F0E4FF1233DBD39001C6E06C
:1015900094009001C5E0648094805003021743E0FA
:1015A000FEA3E0FF9001051228FE122910EE3395EC
:1015B000E0FDFCE47BB87A88F9F8C3120FBD500A4D
:1015C0009001C57488F0A374B8F0D39001EFE09453
:1015D000009001EEE0940050089000F1E06420706B
:1015E0002AE509240AFFE43508FE9001C5E0FCA3C2
:1015F000E0FDC39FEC9E5013ED9400EC648094805A
:1016000040381229107C007D0A802930072C900177
:101610003CE07011122910C39515EE9514501B7CF7
:10162000027DBC800F122910C39509EE9508500A5F
:101630007C027DBC120DB712295C90013CE0700366
:101640000216C89001F0E07002A3E070149001C58A
:10165000E0FEA3E0FDEEFCE4FF12176F12295C80B0
:1016600035122910C3900135E09FFF900134E09EB0
:10167000FE123548D3EF9428EE648094804017D34F
:101680009001F1E094C89001F0E09400400874FFEC
:1016900075F09C120DED900134E0FEA3E0FF7C009C
:1016A0007D0F12106AECF8EDF9EEFAEFFB1229103B
:1016B000EE3395E0FDFC120E85E47B10FAF9F8128A
:1016C0000F2B900134EE800B9001C5E0FFA3E0905A
:1016D0000134CFF0A3EFF0900134E0FEA3E0FFD39C
:1016E0009405EE9400400EEF9410EE940050069096
:1016F00001C5EE8016900130E0FEA3E0FF900135B9
:10170000E02FFF900134E03E9001C5F0A3EFF0D34D
:101710009001C6E094309001C5E0648094F54007E4
:101720007475F0A37430F0E5DB5404704112291095
:1017300090010E1228FE9001C6E024A8FF9001C57A
:10174000E08022E5DB5404702512292B900130E063
:10175000FEA3E0FF90010E1228FE90010E12290A4E
:1017600024A8FFE5F03461FE90010B1228FE2290C0
:1017700001C7EFF0A3ECF0A3EDF0EF1228B3E0FE09
:10178000A3E0C39DFFEE9CFE123548D3EF9428EEF4
:1017900064809480401C12288312101B00000000FB
:1017A00012284FE4F01228CD1228AFEEF0A3EFF08C
:1017B000803B12283E1228E340339001C8E0FCA38E
:1017C000E0FDD3EF9DEE9C400B9001C7E012287620
:1017D000E04401F09001C7E0FF122842E0FAA3E0E4
:1017E000C39DEA9C5007122875E04402F09001C79F
:1017F000E0122888C083C0821210031228CDE4FCB6
:10180000FD120E85D082D08312100F9001C7E0FF29
:101810001228D6E475F001120DEDEF75F007A4243F
:1018200073F582E43435F583E493FE740193FF90FD
:1018300001C7E0FDC454F02417F582E43402F583B7
:10184000E0FAA3E0C39FEA9E50030219DBED1228E1
:10185000D6E0FEA3E0FFFBEEFAE4F9F89001C7E062
:10186000122888120FF7120F2B9001CA12100F12B4
:101870002838E0FCA3E0C39FFFEC9EFE12354890A1
:1018800001CEEEF0A3EFF09001C7E0FD75F007A4E4
:10189000246EF582E43435F583C37401939FE49399
:1018A0009E401FED122842E0FEA3E04E601490011E
:1018B000C7E0FB1228C0E0FEA3E0C394B8EE940B8F
:1018C000501E9001C7E0FF122842E0FCA3E04C70DC
:1018D00008EF1228C0E4F0A3F0122838EE021982B3
:1018E000EB60030219889001D0F09001CEE0FEA3D6
:1018F000E0FFD39450EE94004006A37408F08032C9
:101900009001C7E0122876E064036026D3EF943C90
:10191000EE940040089001D07404F08015D390013B
:10192000CFE094289001CEE0940040069001D0745E
:1019300002F012283EE0FEA3E0FFE4FCFD1228EFD7
:10194000D3120FD340119001D0E0FF12283EE48F54
:10195000F0120DED0219BED39001CFE0945090012A
:10196000CEE09400405812283EC083C082E0FEA31F
:10197000E0FF9001D0E0FDC3EF9DFFEE9400D08228
:10198000D083F0A3EFF0803612283EE0FEA3E0FF04
:101990004E700D1228EFEBFFEAFEE9FDE8FC801621
:1019A0007C007D0712106A1228EF120E85E47B0876
:1019B000FAF9F8120F2B12283EEEF0A3EFF01228DE
:1019C0008312101B0000000012284FE4F09001CA9F
:1019D000120FF71228AFEEF0A3EFF012283E1228F4
:1019E000E3405F9001C9E09FFF9001C8E09EFE12B6
:1019F00035489001C7E075F007A42470F582E434FF
:101A000035F583D37401939FE4939E400F9001C7F3
:101A1000E0FF122842122895E4F080269001C7E0EA
:101A2000FF75F007A42472F582E43435F583E4935E
:101A3000FE1228A1E0C39E500912283E122895E00C
:101A400004F01228CD22D39001E7E09F9001E6E058
:101A50009E400AA3E09FF09001E6E09EF09001EB2B
:101A60001230EE9001EAE09C400CA3E09FF0900160
:101A7000EAE09EF08002D28AD39001E9E09F9001D3
:101A8000E8E09E400AA3E09FF09001E8E09EF0129B
:101A900031005003123138D39001EDE09F9001ECFA
:101AA000E09E400AA3E09FF09001ECE09EF0D3900E
:101AB00001EFE09F9001EEE09E400AA3E09FF090CE
:101AC00001EEE09EF0D39001F5E09F9001F4E09EDE
:101AD000400AA3E09FF09001F4E09EF0D39001F162
:101AE000E09F9001F0E09E400AA3E09FF09001F09B
:101AF000E09EF0D39001F3E09F9001F2E09E400A57
:101B0000A3E09FF09001F2E09EF0D39001B6E09F39
:101B10009001B5E09E400AA3E09FF09001B5E09EE1
:101B2000F09001F71230EE9001F6E09C400AA3E03D
:101B30009FF09001F6E09EF012310E500312313802
:101B4000D3900192E09F900191E09E400AA3E09F14
:101B5000F0900191E09EF090019412313E9001933B
:101B6000E09C400AA3E09FF0900193E09EF0D390A8
:101B700001A8E09F9001A7E09E400AA3E09FF0909B
:101B800001A7E09EF0D39001AAE09F9001A9E09EFA
:101B9000400AA3E09FF09001A9E09EF090016F122F
:101BA000313E90016EE09C400AA3E09FF090016EF0
:101BB000E09EF0D39001B8E09F9001B7E09E400A0C
:101BC000A3E09FF09001B7E09EF012311C50031289
:101BD000313812312A5003123138D390012DE09F51
:101BE00090012CE09E400AA3E09FF090012CE09E23
:101BF000F022C0E0C0F0C083C082C0D0E8C0E0D214
:101C0000AFD39001E7E094009001E6E09400400338
:101C10001230E7D39001EBE094019001EAE09400E8
:101C200040051230E78002D28AD39001E9E09400A7
:101C30009001E8E0940040031230E71231005003B5
:101C40001230F9D39001EDE094009001ECE09400A3
:101C500040031230E7D39001EFE094009001EEE0F2
:101C6000940040031230E7D39001F5E09400900116
:101C7000F4E0940040031230E7D39001F1E09400C7
:101C80009001F0E0940040031230E7D39001F3E0BC
:101C900094009001F2E0940040031230E7D39001E9
:101CA000B6E094009001B5E0940040031230E7D311
:101CB0009001F7E094019001F6E0940040031230A7
:101CC000E712310E50031230F9D3900192E09400E4
:101CD000900191E0940040031230E7D3900194E02A
:101CE0009401900193E0940040031230E7D39001F7
:101CF000A8E094009001A7E0940040031230E7D3DD
:101D00009001AAE094009001A9E0940040031230F1
:101D1000E7D390016FE0940190016EE094004003DE
:101D20001230E7D39001B8E094009001B7E094003E
:101D300040031230E712311C50031230F912312ADD
:101D400050031230F9D390012DE0940090012CE063
:101D5000940040031230E7D0E0F8D0D0D082D08396
:101D6000D0F0D0E0329001D0EFF01226F4E07027EE
:101D70009001D0E012272B120FF7E4FBFAF9F8C319
:101D8000120FD360129001D0E0122749120FF7E42E
:101D9000F8C3120FD3705712275D9001D1121EA104
:101DA000EEF0A3EFF0ED1226F4E06029ED75F00AF5
:101DB000A4245AF582E43435F583C083C0829001AF
:101DC000FAE0D082D083122702400A9001D0E012BC
:101DD00026F47405F01226A9E0D394007480948050
:101DE00040061226F3E014F09001D5021E9D122742
:101DF00026120FF79001D912100F122748120FF771
:101E00009001DD12100F9001D0E012273A120FF767
:101E1000EFF9122766E9F8120FE4EFFBEEFAEDF99D
:101E2000ECF8122766120E929001E112100F900149
:101E3000D9120FF79001D5121003120E859001E10F
:101E4000121003120E85122757122726122763122B
:101E5000274812276312276C121003120F2B122728
:101E6000579001DD121EA1EEF0A3EFF0ED75F00A20
:101E7000A42456F582E43435F583C083C0829001F2
:101E8000FAE0D082D083122702400F1226A97405EF
:101E9000F012275D9001DD12100F9001DD120FF797
:101EA00022EFFBEEFA120FF7C3EF9BFFEE9AFE1242
:101EB00035489001D0E0FD75F013A42405F582E4C7
:101EC0003402F5832290017A1229A79404EE94003B
:101ED0005022122970EF25E0FFEE33FE74722FF5C9
:101EE0008274013EF583ECF0A3EDF090017A1229A3
:101EF00084021F909001C97401F09001C9E0FFC3F2
:101F00001229485021EF12294FFCA3E0FDEF25E0F4
:101F10002470F582E43401F583ECF0A3EDF0900138
:101F2000C9E004F080D490013CE0600280531229A3
:101F300007FF122970C3EF9DFFE5F09CFE123548A4
:101F4000C3EF9428EE6480948050369001081229E3
:101F50000AFFC3900101E09FFF900100E095F0FEB1
:101F6000123548C3EF9414EE6480948050059001BC
:101F700008800390010212290AFF900178E5F080A1
:101F80000B900100E0FFA3E0900178CFF0A3EFF009
:101F90009001C512101B00000000E49001C9F090F0
:101FA00001C9E0FFD390017BE09F90017AE09400AB
:101FB00040259001C51210039001C9E012294FFE7F
:101FC000A3E0FFE4FCFD120E859001C512100F90F6
:101FD00001C9E004F080C89001C5120FF7ECC0E021
:101FE000EDC0E0EEC0E0EFC0E090017A12298BD0A6
:101FF000E0FFD0E0FED0E0FDD0E0FC120F2B90011E
:10200000C512100F9001C5020FF79001C57402F0C0
:10201000A374BCF0D39001B8E094009001B7E094B1
:10202000004011122907FF900108121058E5F08FA7
:10203000F0120E669001E6E07002A3E0600B9001E2
:10204000C5E4F0A37464F0800B90001AE064117092
:10205000037420F090013CE0600F7E007F0A7D0059
:102060007B017A01793D02109790013D121003E83F
:10207000C0E0E9C0E0EAC0E0EBC0E0122907FFAE33
:10208000F0E4FCFDD0E0FBD0E0FAD0E0F9D0E0F8DD
:10209000120E8590013D12100F900141122984907B
:1020A00001C51229A7900146E09F900145E09E508E
:1020B0000302214E90013D120FF7ECC0E0EDC0E0AD
:1020C000EEC0E0EFC0E090014112298BD0E0FFD0DC
:1020D000E0FED0E0FDD0E0FC120F2B90013D12108D
:1020E0000F90010812290A2432FFE435F0FEE4FCC7
:1020F000FD90013D121003D3120FD3402E9001E644
:10210000E07002A3E070242004219001431229858D
:10211000D3900144E09405900143E09400401812EC
:1021200028F5E4900143F0A3F0800C1228F5E49028
:102130000143F0A3F0C20490013D12101B00000007
:1021400000E4900141F0A3F0900145F0A3F0227566
:102150008D20438D20538D7FE4F5B275B6FF75B7A2
:10216000FF75B2A243B20153A8FB538B7F758B104E
:10217000438B08E58B20E7030080F8538B7F758B3A
:1021800011438B08E58B20E7030080F8900228E5D7
:10219000B5F0A3E5B4F0758B01E4F5B21234E3E4D5
:1021A000F58D90011DE0FEA3E0FF4E701012349AF1
:1021B000FD90011DE5F0F0A3EDF002223F12349AEC
:1021C000FDC3EF9DFFEE95F0FE123548D3EF940A64
:1021D000EE64809480402412349AFFC390011EE084
:1021E0009F90011DE095F05006E475F00180079086
:1021F000011D74FFF5F0120DED804490011DE0FE0D
:10220000A3E0FF7C007D0312106AECC0E0EDC0E0AB
:10221000EEC0E0EFC0E012349AFFAEF0E4FCFDD077
:10222000E0FBD0E0FAD0E0F9D0E0F8120E85E47BD4
:1022300004FAF9F8120F2B90011DEEF0A3EFF090C5
:1022400001FAE06401700D7D051234797002A3E09B
:10225000701A800B7D101234797002A3E0700D901B
:102260000199E0FFA3E0A3CFF0A3EFF09001A1E07C
:102270007002A3E0700F90011DE0FFA3E09001A1A8
:10228000CFF0A3EFF0227FFF7A00790012355E7F56
:10229000C57A01790012355E7E007F147D007B01D6
:1022A0007A0179E5121097902DE0E493900001F007
:1022B0009000047411F0A37422F0A37433F0902DF5
:1022C000E2E493900012F0902DE3E493900014F078
:1022D0009000FB7401F09000367410F09000F1F063
:1022E000900024F0A37420F07B017A0079409001E3
:1022F000021210617A0079449001081210617A008C
:1023000079429001051210617A00792E90010B122A
:1023100010617A00792A90010E1210617A007928F2
:102320009001111210617A00796090011F12106102
:102330007A0079809001AD1210617A0079189001CD
:10234000391210617A00791B9001361210617A00FF
:1023500079329001141210617A00792690011712D7
:1023600010617A00793490011A12106190011412F0
:102370001058E475F0C8120E66900117121058E458
:1023800075F064120E6690011A121058E475F096FA
:10239000120E667514007515C875080075099690BB
:1023A00001E67407F0A374D0F0E49001E5F0229008
:1023B00001CCEFF0902E22E0FF9001D0E4F0A3EFEB
:1023C000F0758A50902E227401F01231B67404F028
:1023D000A3E4F09001CDF09001CDE0FFC3940D7423
:1023E00080948040030224C3EFF87E02E408800654
:1023F000CEA2E713CE13D8F8FF9001CEEEF0A3EFF4
:10240000F04E70079001CEF0A304F0902E207401DE
:10241000F0902E20E030E2F99001CCE0FF902E0009
:102420001231BDE0FCA3E0D394FEEC9407404012CF
:1024300031DEE0FEA3E0FF9001CEE0FCA3E0FDEF83
:102440002DFFEE3CFEC3EF94FFEE94079001CCE02D
:1024500075F002902E10500B12104CEC8DF0120DF6
:10246000ED805012104C7407F0A374FFF08044907C
:1024700001CCE0FF1231BAE0FCA3E0FD9001CEE018
:10248000FAA3E0FBD3ED9BEC9A40211231DEC0832E
:10249000C082C3A3E09BFF0582D58202158315820B
:1024A000E09AD082D083F0A3EFF080071231B6E437
:1024B000F0A3F0902E20E4F0F58D9001CDE004F033
:1024C0000223D79001D0A3E0902E22F0758A30220B
:1024D0007FC87E007D967C0012293740030225C10B
:1024E0003007209001B5E07002A3E0600875141376
:1024F00075158880067514077515D0750806750959
:102500004080499001FAE0F964017006FE7FC8FC42
:102510007D969001BFE0FAA3E0FB2FF515EA3EF5AA
:1025200014CEECCEEDFFEB2FF509EA3EF508E96499
:10253000017019A3E0FEA3E0FF2515F515EE351493
:10254000F514EF2509F509EE3508F5089001051297
:10255000290AFFAEF0C39515EE9514500F90013C7B
:10256000E0601AC3EF9509EE950840119001EEE086
:102570007002A3E0702990013C04F080229000F1E9
:10258000E064209001EE7005F0A3F080077401F084
:10259000A374F4F0E490013CF09001EC12299690C1
:1025A000013CE0FF6016900024E06410900036705B
:1025B000057410F080037420F012297990004BEF1D
:1025C000F022E4F526F525F524F523F526F525F585
:1025D00024F523F522122945502AE52225E0240A74
:1025E000F8E6FE08E6FFE4FCFDE5262FFFE5253EC4
:1025F000FEED3524FDEC35238F268E258D24F52325
:10260000052280D1E47B04FAF9F8AF26AE25AD248B
:10261000AC23120F2B90017EEEF0A3EFF0E47526B1
:10262000A8752561F524F523F5221229455055900A
:10263000017E122919C31229A0123548D3EF940A3A
:10264000EE64809480401290017EE0FEA3E0FF9053
:102650000156E0FCA3E0FD8007900156122919C342
:102660001229A03395E0FDFCE5262FFFE5253EFE6F
:10267000E5243DFDE5233C8F268E258D24F523059D
:102680002202262AE47F607EEAFDFCAB26AA25A969
:1026900024A823D3120FD3400BE47526607525EAD6
:1026A000F524F523AE25AF26229001D5120FF79021
:1026B00001D0E0FB75F013A42400F582E43402F5A8
:1026C0008312100FEB75F013A4240BF582E434028F
:1026D000F583120FF79001D5121003120EA090018E
:1026E000D0E0FB75F013A424FCF582E43401F583FB
:1026F00012100FEB75F013A42404F582E43402F5F4
:10270000832275F00212104CE493FE740193FFEDE6
:1027100075F013A42405F582E43402F583E0FCA3EC
:10272000E0D39FEC9E229001D0E0FB75F013A4242F
:1027300000F582E43402F58322EB75F013A424073C
:10274000F582E43402F58322EB75F013A424FCF542
:1027500082E43401F583229001DD12100F9001D53F
:10276000020FF712100F9001DD020FF7EB75F01357
:10277000A4240BF582E43402F58322C0E0C083C0B8
:1027800082C0D075D018D2AFE5DB30E422D205C2CA
:1027900002E5DB30E11412353AE0F5DFEF64077053
:1027A00065D28A900007F0022829C20102282CE590
:1027B000DB30E52C9000F0E064AA7017758A10F504
:1027C000DAC2AFF5B2F5A8F5A9F58B758E01758D56
:1027D000C080FED200300204C2028050C205804C8C
:1027E000C202E5DB30E121E5DB30E04012353AE0C2
:1027F000F5DFEF24F9600824EE700BD2068007D2D3
:102800008A900007E4F0802120010A7816A6DFD222
:1028100001D202801712353AE5DFF0EF6424700927
:102820009001E804F0A374F4F078160675DBFFD08D
:10283000D0D082D083D0E0329001CA120FF790013D
:10284000C7E0C454F02415F582E43402F58322EB8A
:10285000C454F02413F582E43402F583E4F0A3F0C9
:102860009001C7E0FFC454F02417F582E43402F568
:1028700083E4F0A3F0EFC454F0241CF582E43402A6
:10288000F583229001C7E0FBC454F0240FF582E4E5
:102890003402F58322E0FDA3E09001C8CDF0A3ED62
:1028A000F0EFC454F0241BF582E43402F583229047
:1028B00001C7E0C454F02419F582E43402F5832200
:1028C000C454F0241DF582E43402F583229001C83B
:1028D000E0FEA3E0FF22C454F02413F582E43402A6
:1028E000F58322E0FEA3E0FFD39400EE9400229053
:1028F00001CA02100390013D120FF7900108121057
:1029000058EE8FF0020E66900102121058020E036C
:102910009001C5E0FEA3E0FF22E52225E0240AF8AD
:10292000E6FE08E6FFE0FCA3E0FD229001051210A0
:1029300058E4F5F0020E66D39001E7E094009001B0
:10294000E6E0940022C3E52294047480948022255A
:10295000E02472F582E43401F583E022EE9001C5B3
:10296000F0A3EFF022121058746175F0A8020E6601
:10297000900100E0FCA3E0FD229001E87403F0A3C5
:102980007420F022E475F001020DEDE0FEA3E0FBFF
:10299000EEFAE4F9F822F0A3F09000367410F02279
:1029A000EF9DFFEE9CFE22E0FEA3E0FFC322122F6C
:1029B000AE122DBE7E007F2C7D007B017A017981D5
:1029C00012109712082EE490017AF0A3F09001689B
:1029D000F0A3F0900166F0A3F090016AF0A3F07FFD
:1029E00004122D3E900100E0FEA3E0FFA31228FE9A
:1029F000900100E0FEA3E0FF1228FB12292B9001BA
:102A00000B12296590011112296590010E12292ED1
:102A1000E490013CF0FE7F0AFD7B017A01793D12D2
:102A20001097E49001F4F0A3F09001F2122996E4DB
:102A300090004BF01229799001F8E0700FC39001DB
:102A4000E7E094F49001E6E09401500A9001E67406
:102A500001F0A374F4F022E49001C5F0A3F090011A
:102A600049F0A3F09001477412F0A3745CF01233A4
:102A70001C7E007F047D007B017A0179561210973D
:102A80007F0112339FE4FF12339F1231C39001C5BF
:102A9000CDF0A3EDF09001C5E0FCA3E0FDC39405EB
:102AA000EC94004009D3ED94F0EC94074017EF64E8
:102AB000014E70059001498004E4900147F0A3F0B5
:102AC000E4FF12339F902E23E4F01231C39001C52E
:102AD000CDF0A3EDF090001D7410F0EF64014E9066
:102AE00001C570081231AA1231E880061231AA120B
:102AF00031F2E03EFE1231D2229001FAE025E024CC
:102B00006AF582E43435F583E5822FF582E4358376
:102B1000F583E49322121003900162E0FEA3E02209
:102B20009001CAE0FFA3E0CF90015CF0A3EFF02298
:102B3000F583E49375F002902E0012104CE0FFA391
:102B4000E0229001FAE0242AF582E43402F583E0E1
:102B500022F583E4932420F582E4342EF58322CFFA
:102B6000F0A3EFF0902E20E4F0758A30229001FA65
:102B7000E06401221234C6758A50902E207401F050
:102B8000229001CC020FF7E0FCA3E0FDECFEEDFF8C
:102B900022120E859001CC02100F787FE4F6D8FD4A
:102BA000758126022BE4020000022CB6E493A3F800
:102BB000E493A34003F68001F208DFF48029E49354
:102BC000A3F85407240CC8C333C4540F4420C8834B
:102BD0004004F456800146F6DFE4800B010204084D
:102BE0001020408090344AE47E019360BCA3FF54DF
:102BF0003F30E509541FFEE493A360010ECF54C09B
:102C000025E060A840B8E493A3FAE493A3F8E49322
:102C1000A3C8C582C8CAC583CAF0A3C8C582C8CA2A
:102C2000C583CADFE9DEE780BEE49001C9F0A3F006
:102C3000200603022CB520077CC2069001FAE09022
:102C40002E12E0FFA3E09001C9CFF0A3EFF09001B6
:102C5000C9E0FFA3E09001C7CFF0A3EFF0E4FF12BB
:102C6000339F1231C39001C9CDF0A3EDF0EF6401A1
:102C70004E9001C970081231AA1231E88006123153
:102C8000AA1231F2E03E9001C5F0A3EFF09001C529
:102C9000E0FEA3E0FF1231D29001FAE09001C7E01C
:102CA000FFA3E0902E12CFF0A3EFF09001E87403A1
:102CB000F0A37420F02253A87F1234FF1222861250
:102CC000335F12080E43A880E4F58D9000F1742064
:102CD000F0122E4A9001E5E014601514601714609C
:102CE0003814604A240470E0122A5712080380D86E
:102CF0001229AE80311234A3900020E0FF642060DE
:102D000008EF64216003122EC8900025E064107063
:102D1000B79001E57404F080AF12080A9001E874DE
:102D200003F0A37420F09001E57402F0809A12324F
:102D300090900025E06410608F120803808A900153
:102D4000C5EFF0E4A3F09001C5E0FFA3E0C39F50FE
:102D50002E12111812351A90016AEEF0A3EFF08EC0
:102D600012F513C8740AC87400FCE4FDFB7A0079FC
:102D70000CFE7F08120D7F9001C6E004F080C712A0
:102D800025C2900100EEF0A3EFF09001681229A790
:102D9000900133E09FFF900132E09EFE1235487CA7
:102DA000007D05120DB7900130ECF0A3EDF090011D
:102DB00068E0FFA3E0900132CFF0A3EFF0227E00A5
:102DC0007F047D007B017A01795A1210977E007F83
:102DD000047D007B017A01796202109700000000F7
:102DE0001002AB2474AA7583F5758255A5745575C8
:102DF00083FA7582AAA574A57583F5758255A522F7
:102E00000203020AB0B00BB6B60CFFFF09020208BB
:102E1000FFFF0D77770E04041307071410101080BE
:102E2000801500001600000192129212071B021278
:102E3000100F0404040404010101011118100F0F04
:102E400012180810080302040204900020E0642015
:102E500070037421F0900136121058120E036410A2
:102E600045F07003123247900001E064AA7003122B
:102E700031491231FC20030890001AE06410700BF5
:102E800090001A7411F0C2031208039000FBE06076
:102E900006E4F09001E5F090016EE07004A3E064B8
:102EA00001701590016EF0A3F09001B77407F0A3C4
:102EB00074D0F0E49001E5F030000CC2009001E81D
:102EC0007401F0A374F4F022308A719001E6E0708E
:102ED00002A3E0706790016EE07002A3E0705DF500
:102EE000B2758D20438D20758D8043A808D2AF75B3
:102EF0008B4090012CE0FEA3E0FF4E758E14200065
:102F00002F20052CE5DB54047026758AA4200520AB
:102F1000E5DB5404701AF58675870300000075869A
:102F200001EF4E60047F2880027F7F7E00121A46E8
:102F3000758B01758A3053A8F71234E322E4FEEE54
:102F4000C39407748094805038EE75F005A424284B
:102F5000F582E4342EF583C083C0829001FAE0D07C
:102F600082D08375F00212104C122B08FDEE75F022
:102F700005A42427F582E4342E122B51EDF00E80A7
:102F8000BEEF70109001FAE0700A900147E0700205
:102F9000A3E0600F122B6D7014900149E07002A342
:102FA000E0700A9001FAE0902E217412F0227E0067
:102FB0007F137D007B017A0179FC121097E4FBEB13
:102FC000C394017480948050519001FAE0FFEB7536
:102FD000F00AA42454F582E43435F583E5822FF514
:102FE00082E43583F583E493FFE4FCFDFE12273988
:102FF00012100F122739120FF7EF04F87E00740138
:10300000088005C333CE33CED8F9FFEE3395E0FD0B
:10301000FC12276C12100F0B80A5229001EAE070C1
:1030200004A3E064017011900007E06004D28AE418
:10303000F0E49001EAF0A3F0900036E0FF9000FF8A
:10304000E06F603D900036E0FD9000FFF0900007DB
:10305000E09001FBF0540FF0ED7E0064207005E07D
:103060004420800CEF64104E700B9001FBE0441084
:10307000F0900007F0C28A9001EA7403F0A374E8AC
:10308000F022CFF0EFA3F0900105121058020E03CA
:10309000C3FF900186E09F900185E095F0229001AA
:1030A0001DE0FEA3E0FF2290011DE0FFA3E0CF9012
:1030B00001A1F0A3EFF0229001C8E0941E9001C797
:1030C000E09400229001A97413F0A37488F0A3E4A3
:1030D000F0A322E4F0A3F0A3F0A3F022FF90018577
:1030E000E5F0F0A3EFF02274FFF5F0020DEDEF2410
:1030F00001FDE43EFCD3E09D22E475F001020DEDFC
:10310000C3900146E094BC900145E0940222C39034
:103110000190E0946490018FE0940022C390021E1D
:10312000E094B890021DE0940B22C3900218E09442
:10313000F4900217E0940122EE8FF0020DEDEF24DF
:1031400001FDE43EFCD3E09D229001C57408F0A38C
:10315000E4F0A3743FF0A374DFF0E4FDFCF9758A9A
:1031600010538AEF009001C5E0FEA3E02DF582EE3A
:103170003CF583E493FF69F90DBD00010CBC37E514
:10318000BDDFE29001C7E0FEA3E0F5828E83E49309
:10319000FFE96F70089000017410F08005E4900062
:1031A00001F0758A30538AEF0022E0FEA3E0FF7C35
:1031B000007D0A020DA59001CCE0902E1075F00262
:1031C00002104C9001FAE0FF7E00902E12E0FDA369
:1031D000E022900139121058EE8FF0020E6675F061
:1031E00002EF902E1002104C90014AE02FFF900148
:1031F0004922900148E02FFF90014722900013E000
:10320000FF9001F9E06F600CEFF09001F67402F0AE
:10321000A37458F09001F6E07004A3E064017026F6
:103220009001F9E0FF7E0064107002D207EF642085
:103230004E7002C207900025E064106002D203E4E1
:103240009001F6F0A3F022E49001C5F0A3F0758A96
:1032500010538AEF00122DE475EA81E4F5F6F5F4D7
:1032600075F308F5F275EB0700E5EC30E7FBAFF31B
:10327000EFFEADF2EDFF900136121058EE8FF01216
:103280000E66E4F5EC75EB30758A30538AEF002258
:10329000900025E06410703FF5B2758D20438D20BD
:1032A000538D7F53A8F7F58BE5DB5404701320058D
:1032B00010F58AF586758703000000758601758A0A
:1032C00030758B019001F87401F09001E87403F0FF
:1032D000A37420F01234E322C2D5E830E70FB2D550
:1032E000E4C39BFBE49AFAE499F9E498F8EC30E73C
:1032F00017B2D512330E120F2BE4C39BFBE49AFADC
:10330000E499F9E498F88003120F2B30D50DE4C34B
:103310009FFFE49EFEE49DFDE49CFC22E4FFEFC3DE
:10332000940D74809480502E9001FAE0FEEF75F0B9
:1033300003A42401F582E4342EF583E5822E122BBA
:103340000BFEEF75F003A42400F582E4342E122B5B
:1033500051EEF00F80C8902F56E0902E2BF022E413
:10336000F5DA75DA4043DA2030881375D74075D620
:10337000409001FA04F09000157424F0801175D784
:103380004275D642E49001FAF09000157425F0538E
:1033900092FE75DA5843A80275B80275F8022290B9
:1033A00001CBEFF01234C69001CBE0FF122F3D901D
:1033B00001CBE0FF9001FAE025E0246AF582E434D5
:1033C00035F583E5822FF582E43583F583E493FFB9
:1033D0001223AF9001CBE0FF02352B9001C7EFF035
:1033E0007E007F10EEC0E0EFC0E07D00E075F010E1
:1033F000A4240FF9740235F0FA7B01D0E0FFD0E08D
:10340000FE1210979001C7E01228C0740BF0A3744D
:10341000B8F022900157E02424FF900156E034FADE
:10342000FEC3900169E09F900168E09E50149001F6
:103430006EE07002A3E0701190016E04F0A374F4CA
:10344000F022E490016EF0A3F022C10542022A02AC
:1034500003C1064101FB004101FA00C1074101F926
:1034600000C101011600C100C102C104C103410035
:10347000FF104302250102280090011DE0FEA3E099
:10348000FF7C0012106AE47B64FAF9F8120F2B90AB
:103490000199EEF0A3EFF0A3E0229002251210585C
:1034A000020E0312082E7F01122D3E121EC590013E
:1034B000021228FE12147D1224D012200A12301B90
:1034C000123413022C29EFF87401088002C333D898
:1034D000FC42AB122AF990356793F4529152935300
:1034E00091DF22E5B254016006E5A85410700F7513
:1034F000B29275B67CE4F5B743B20143A8102275C9
:103500008A30538AEF758601758F05E4F5AB75AC8B
:103510000F75913E759201D28A22900168E0FEA358
:10352000E0FF900166EEF0A3EFF022122AF9903549
:10353000679342914288439120227816E6FF240047
:10354000F582E43400F58322EE30E707C3E49FFF01
:10355000E49EFE2203030019001E001400197E00E1
:103560007D007B01021097010220010201020096FA
:1035700000960701F40000000000000000000000B9
:10358000000000000000000000000000000000003B
:10359000000000000000000000000000000000002B
:1035A000000000000000000000000000000000001B
:1035B000000000000000000000000000000000000B
:103FD000000000000000000000000000000000776A
:103FE00000000000000000000000000000000000D1
:103FF00000000000000000000000000000000000C1
:00000001FF
